:100000000C9481010C94C8010C94C8010C94C80193
:100010000C94C8010C94C8010C94C8010C94C8013C
:100020000C94C8010C94C8010C94421E0C94141F2B
:100030000C943F190C94C8010C94C8010C94C8018D
:100040000C94C8010C94C8010C94C8010C94C8010C
:100050000C94C8010C9498190C94C8010C94C80114
:100060000C94C8010C94C8010C94C8010C94C801EC
:100070000C94C8010C94C8010C94C8010C94C801DC
:100080000C94C8010C94C8010C94C8010C94C801CC
:100090000C94C8010C94C8010C94C8010C94C801BC
:1000A0000C94C8010C94C8010C94C8014A044A0479
:1000B00076047604F805F805F805F805DE047305FE
:1000C00084058405E805F805F805F1059006900615
:1000D000A206A2069906A206A206A206900690060D
:1000E0009E06A206A2069E06811FA81FA020A81F8A
:1000F000A020F41F1720A0206E207D205F00075A4B
:10010000095A0B5A0D5A115A165A1A5A1C5A1E5A83
:10011000205A225A0153085A0A5A0C5A0E5A125A95
:10012000175A1B5A1D5A1F5A215A295A00000000FB
:100130000000015A0F5A105A185A195A025A000050
:10014000000000002A0014001A0008001500170023
:100150001C0018000C00120013002F0001530400B3
:100160001600070009000A000B000D000E000F002A
:10017000330034000000000000001E0006001900DB
:1001800011001000260000000000000000D0D0D0B8
:10019000D0D0D00101020408102041424448480058
:1001A0000000484850608182848890A0C1C2C4D0B9
:1001B000D0D0D0D0D0C80000000000000000000067
:1001C00000000000000000000000000018036400B0
:1001D0007200610067006F006E00770069006E00BA
:1001E000670073000000100343006C0034007200CD
:1001F0007900740079000000040309040902780002
:10020000040100A0FA090400000103010100092112
:10021000110100012240000705810308000A0904BA
:1002200001000103000000092111010001223B002F
:100230000705820320000A080B02020202010009DE
:10024000040200010202010005240010010424023E
:10025000020524060203070583030800FF090403BF
:1002600000020A00000007050502100005070584CA
:100270000210000512010002EF020108EDFE00006D
:1002800001000102000105010906A101850605071B
:1002900019E029E715002501950875018102050778
:1002A000190029EF1500250195F075018102050857
:1002B00019012905950575019102950175039101B3
:1002C000C005010906A101050719E029E715002568
:1002D00001950875018102950175088101050719CD
:1002E0000029FF150026FF00950675088100050806
:1002F0001901290595057501910295017503910173
:10030000C00011241FBECFEFDAE0DEBFCDBF04B6C0
:1003100003FE27C08091840290918502A0918602FD
:10032000B09187028730904BA740B04BD1F4109228
:10033000840210928502109286021092870214BEE7
:1003400084B7877F84BF0FB6F894A895809160002A
:10035000886180936000109260000FBEE0E0F8E3D7
:10036000099511E0A0E0B1E0E6EEF5E402C00590E9
:100370000D92A434B107D9F722E0A4E4B1E001C0A2
:100380001D92A438B207E1F70E948B120C94F1225F
:100390000C94000081E00C94D21281E0089581E079
:1003A00008950C94CF0108950C94D3011F93CF931B
:1003B000DF9300D000D01F92CDB7DEB749835A83B8
:1003C0006B833091460189819A81311114C0662373
:1003D00059F0222349F00E943408182F682F898190
:1003E0009A810E94DD0703C00E940808182F6981C6
:1003F0007A81812F04C00E94340869817A810F902C
:100400000F900F900F900F90DF91CF911F910C9450
:10041000F70EFC01262F4081518162817381848116
:100420000C94D60181E00895CF93DF93EC0160E056
:100430000E940902BE01DF91CF910C94D4010E9469
:1004400008110E94A4020C9443110C94411180E005
:100450000C94A50208950C942A020E947E060E9424
:100460002B022FEF84E39CE0215080409040E1F785
:1004700000C000000C94BE190F931F93CF93DF931D
:100480008C0161E00E940902EC01B8010E94D101D7
:10049000882309F444C0B801CE010E944013882388
:1004A000F1F1B801CE010E9471178823C1F1B801A2
:1004B000CE010E949B15882391F1B801CE010E94C4
:1004C000CD16882361F1F8018281882309F1CB35AB
:1004D0008DE5D807C1F050F4C115FCE5DF0781F0C8
:1004E000CF3DDC45A9F40E94E80D19C0CC35EDE5FF
:1004F000DE0761F0CD35DD4559F40E942B0D08C0B3
:100500000E942D020CC00E94340D02C00E94370DC3
:10051000C801DF91CF911F910F910C94CD0180E024
:10052000DF91CF911F910F9108950C942A020E94A0
:10053000CD170E94A5020C94950208950C949D027B
:1005400081E008950C94A0020895CF93C82F0E94D3
:100550009E028C2F0E94A202CF910895CF93DF9329
:10056000CDB7DEB72B970FB6F894DEBF0FBECDBF69
:100570004F83588769877A878B8761110E94770C30
:100580009E012F5F3F4F86E0F90111928A95E9F7AE
:1005900085E0FE013796D90101900D928A95E1F729
:1005A00089819A814C815D81452B31F09F3F31F4E7
:1005B00091E08F3F19F403C091E001C090E090FFFB
:1005C00009C049815A816B817C818D819E810E9405
:1005D000980B05C0C9010E9412028111F2CF2B961F
:1005E0000FB6F894DEBF0FBECDBFDF91CF91089557
:1005F000FC01808191810E9476080895CF93882321
:1006000009F482C0C82F8238C1F40E94CD1781FD41
:100610007BC069E380910201909103010E94B518AB
:100620000E94A90C2FEF81EE94E021508040904071
:10063000E1F700C0000069E319C08338F1F40E94BB
:10064000CD1780FD61C063E58091020190910301A7
:100650000E94B5180E94A90C2FEF81EE94E0215062
:1006600080409040E1F700C0000063E58091020106
:10067000909103010E94C01844C08438C1F40E94C4
:10068000CD1782FD41C067E4809102019091030182
:100690000E94B5180E94A90C2FEF81EE94E0215022
:1006A00080409040E1F700C0000067E4DFCF8CEFAE
:1006B0008C0F813AD0F46C2F80910201909103014C
:1006C0000E943518882349F06C2F80910201909187
:1006D00003010E94C0180E94A90C6C2F8091020196
:1006E000909103010E94B5180CC080E28C0F8830F5
:1006F00058F4C77081E001C0880FCA95EAF70E94DC
:100700005A0CCF910C94A90CCF910895882309F429
:100710005BC0682F823879F40E94CD1781FF54C0E6
:1007200069E380910201909103010E94B5180E9433
:10073000A90C69E310C08338B1F40E94CD1780FF83
:1007400043C063E580910201909103010E94B518B6
:100750000E94A90C63E580910201909103010E941F
:10076000C0180C94A90C843879F40E94CD1782FF2C
:100770002BC067E480910201909103010E94B5189B
:100780000E94A90C67E4E7CF8CEF860F813A18F33B
:1007900080E2860F883048F4677081E001C0880FDE
:1007A0006A95EAF70E94600CDCCF8BE5860F8330F8
:1007B00020F480E090E00C94F317685A673120F43D
:1007C00080E090E00C94091808951F93CF93DF9375
:1007D000182FEB010E94FE02209741F08FE99FE065
:1007E0000197F1F700C000002197F6CF812FDF912C
:1007F000CF911F910C948603893319F060E070E06B
:1008000002C060E570E00C94E503882321F00E94AB
:100810005A0C0C94A90C0895882321F00E94600CB6
:100820000C94A90C0895CF92DF92EF92FF920F9350
:100830001F93CF93DF937C01D62FC72FFC0112812A
:10084000058102950F700E94500C8823B9F0112386
:10085000A9F08C2F807F803421F080E28D0F8830CA
:1008600068F08091660282FD09C082E00E94F90C66
:100870000E94500C91E0D82ED92601C0D12CCC2E4C
:10088000C2948FE0C8228C2D90E0FC01EA5AFF4F01
:100890000C949C228C2F807FCF70882311F0C295FE
:1008A000C07F112399F0CC2309F47DC180E28D0F24
:1008B000883010F0D11104C08C2F0E945A0C03C054
:1008C0008C2F0E946A0C0E94A90C6DC18D2F0E9472
:1008D0008603CC2309F48CC180E28D0F883038F177
:1008E000DD2329F18C2F0E94700C24C08C2F807F77
:1008F000CF70803211F0C295C07FDD2319F0D13066
:10090000A1F13DC08091660282FF17C0112349F01A
:10091000CC2329F08C2F0E945A0C0E94A90C80E055
:1009200043C180E00E948603CC2309F461C18C2F6F
:100930000E94600C0E94A90C5BC1112371F000237E
:1009400041F0013031F40E948A0C8C2B0E94920CF1
:100950004FC10E948A0C8C2B1DC0002319F001305E
:1009600009F446C10E949F0C25C0112321F00630D6
:1009700008F03EC10EC0053008F03AC11BC011237B
:1009800061F0002331F0F701858180FF0CC18F7089
:1009900085838C2F0E9405042BC1002359F0D93385
:1009A00009F012C1FFEF27EE83E0F15020408040B4
:1009B000E1F708C18C2F0E940C041AC18C2F8370A0
:1009C00009F045C0111118C14D2F42954695477049
:1009D000440F440F6D2F6F70862F90E0A0E0B0E0C1
:1009E000042E04C0880F991FAA1FBB1F0A94D2F7B8
:1009F000D4FF10C00FE010E020E030E004C0000F92
:100A0000111F221F331F4A95D2F70095109520958C
:100A1000309503C000E010E09801C695C695C370FC
:100A2000BC01CD01602B712B822B932BC23049F07E
:100A300058F4C13019F00E94F306DEC00E94E106AE
:100A4000DBC00E940507D8C00E94DF06D5C0112375
:100A500019F08C2F817001C08695882309F4CCC0D1
:100A60004D2F429546954770440F440F6D2F6F7080
:100A7000862F90E0A0E0B0E0042E04C0880F991FFC
:100A8000AA1FBB1F0A94D2F7D4FF10C00FE010E0DA
:100A900020E030E004C0000F111F221F331F4A95D1
:100AA000D2F7009510952095309503C000E010E036
:100AB0009801C695C695C370BC01CD01602B712B02
:100AC000822B932BC23049F058F4C13019F00E94A8
:100AD000B80792C00E94A6078FC00E94CA078CC0A8
:100AE0000E94190789C0CF70112339F08C2F0E9402
:100AF0003F078D2F0E9405047FC08D2F0E940C049C
:100B00008C2F0E94600778C0D23F21F128F4D03F9B
:100B100041F0D13FC1F043C0D33F19F1D43F79F048
:100B20003EC0112341F0053008F062C08C2F8F7158
:100B30000E9485075DC0063008F05AC0F7CF80914B
:100B4000660282FF18C0112339F08C2F8F710E942A
:100B50003F074EC01123C9F38C2F8F710E9460078D
:100B600047C0112329F08C2F8F710E942A0740C0A3
:100B70000E9425073DC0112349F0CF718C2F0E94A0
:100B80003F0763E08C2F0E94DE0C32C081E00E94A0
:100B9000F90C023068F182E00E94F90C29C011239F
:100BA00031F0002391F28D2F0E94FE0221C000231C
:100BB00099F2D93349F49FEFE7EEF3E09150E0402A
:100BC000F040E1F700C000008D2F0E94860310C0A6
:100BD0004C2F4F706D2FC7010E94F30E0E94A40886
:100BE0000FC04C2F4F706D2FC7010E94F60E08C02A
:100BF00088EF8C0D843020F40E94CD170E94A5024E
:100C0000DD20C9F00E944C0C80FD15C0F701128256
:100C10000E94460C0E943F07C7010E943C060E94AA
:100C2000460CDF91CF911F910F91FF90EF90DF90D5
:100C3000CF900C946007DF91CF911F910F91FF909F
:100C4000EF90DF90CF9008950F931F93CF93DF9392
:100C5000EC01688179818A810E9481088C010E945F
:100C6000DC070E94CD06B801CE010E941304DF917B
:100C7000CF911F910F910895CF93DF93EC0198814D
:100C800089812B813C81232B31F08F3F31F481E02E
:100C90009F3F19F403C081E001C080E080FD1DC0CA
:100CA000CE010E943C02811110C00E94500C88238A
:100CB000A1F08A81882389F08091660282FD0DC0AF
:100CC00082E0DF91CF910C94F90CCE010E942406B2
:100CD000CE01DF91CF910C941402DF91CF91089552
:100CE0000E94770C0E94870C0C94A90C8091020141
:100CF000909103010E94CB180C9470060E94670C1F
:100D00000C947606E92FE295EF704E2F50E0FA0131
:100D10003297EE30F105B0F4EA59FF4F0C949C2263
:100D2000803F91F018F4883E68F40EC0843F51F47F
:100D30000BC0883E48F0813F29F406C093FB88270A
:100D400080F9089580E0089581E00895FC01808194
:100D500091810E9476080E9482060895CF93DF93C6
:100D600000D000D01F92CDB7DEB70F900F900F903C
:100D70000F900F90DF91CF910895CF93DF9300D024
:100D800000D000D0CDB7DEB726960FB6F894DEBF00
:100D90000FBECDBFDF91CF910895089508950C94B3
:100DA000CE060C94CF060E94D10660936401709326
:100DB000650180936601909367010C9470060C9412
:100DC000D3060F931F930091640110916501209148
:100DD000660130916701602B712B822B932B1F9141
:100DE0000F910C94D3060F931F93009164011091FF
:100DF0006501209166013091670160237123822390
:100E000093231F910F910C94D3060F931F9300917E
:100E1000640110916501209166013091670160279E
:100E20007127822793271F910F910C94D3060C945E
:100E3000CE060E9417076093600170936101809352
:100E40006201909363010C94700660E070E0CB0146
:100E50000C9419070F931F9341E050E060E070E09D
:100E60008A019B0104C0000F111F221F331F8A95A6
:100E7000D2F7C901B8011F910F910C9419070F9374
:100E80001F9341E050E060E070E004C0440F551F44
:100E9000661F771F8A95D2F780916001909161015A
:100EA000A0916201B09163018A019B01082B192B6B
:100EB0002A2B3B2BC901B8011F910F910C941907E4
:100EC0000F931F9341E050E060E070E004C0440FD6
:100ED000551F661F771F8A95D2F7409550956095EC
:100EE00070958091600190916101A0916201B09133
:100EF00063018A019B01082319232A233B23C9018B
:100F0000B8011F910F910C9419070F931F9341E0A3
:100F100050E060E070E004C0440F551F661F771F6B
:100F20008A95D2F78091600190916101A091620150
:100F3000B09163018A019B01082719272A273B27C3
:100F4000C901B8011F910F910C9419070F931F93BA
:100F50000091600110916101209162013091630163
:100F6000602B712B822B932B1F910F910C941907DF
:100F70000F931F9300916001109161012091620114
:100F80003091630160237123822393231F910F917A
:100F90000C9419070F931F93009160011091610148
:100FA0002091620130916301602771278227932786
:100FB0001F910F910C94190708952CE0929F800DBA
:100FC0001124E82FE695E695E695877051E001C07B
:100FD000550F8A95EAF785E0E89FF0011124E95B57
:100FE000FE4F20E030E070E04081CB01022E02C0D5
:100FF000969587950A94E2F78170819584278523D9
:10100000842781932F5F3F4F2530310569F708957D
:101010002CE0929F800D1124682F66956695669549
:10102000982F977085E0689FB001112440E050E050
:1010300080E0FB01E40FF51FE95BFE4F208130E00B
:10104000092E02C0369527950A94E2F721703327BE
:10105000042E01C0220F0A94EAF7822B4F5F5F4FE4
:101060004530510531F70895BF92CF92DF92EF924C
:10107000FF920F931F93CF93DF938C01C090600179
:10108000D0906101E0906201F09063018091640171
:1010900090916501A0916601B0916701C82AD92A93
:1010A000EA2AFB2ACFE1D0E0D701C6010C2E04C00A
:1010B000B695A795979587950A94D2F780FD04C0B9
:1010C000219790F7B12C07C0BC2EB8018C2F0E943D
:1010D0000F100197A9F38B2DDF91CF911F910F91E5
:1010E000FF90EF90DF90CF90BF900895CF93DF9364
:1010F000EC010E943408BE010E940F10DF91CF91D5
:1011000008951F93CF93DF93EB01909146019923AC
:1011100021F0CB010E94760813C0882349F0CB014F
:101120000E943408182F682FCE010E94DD0704C0EA
:10113000CB010E940808182FBE01812F0E940F10BA
:10114000DF91CF911F910895EF92FF920F931F931C
:10115000CF93DF938C01892B09F46CC0F12CEE2422
:10116000E394E8012196F8018491843740F48430B7
:1011700008F051C0813081F0823019F15BC08537B1
:1011800009F444C0A8F19CE7980F903708F052C0CA
:101190008F770E94860341C00E5F1F4FFE0184912E
:1011A00090E2980F983050F48770FE2D01C0FF0F29
:1011B0008A95EAF78F2F0E947A0C14C00E94FE02D3
:1011C0002DC00E5F1F4FFE01849190E2980F983062
:1011D00060F48770FE2D01C0FF0F8A95EAF78F2F0C
:1011E0000E94800C0E94A90C19C00E94860316C0A0
:1011F0000E5F1F4FFE01C491CC2381F08FE99FE069
:101200000197F1F700C00000C150F6CF0E5F1F4FED
:10121000FE01F49003C00E94FE028E018F2D8823F0
:1012200009F49FCFEFE9FFE03197F1F700C000002C
:101230008150F5CFDF91CF911F910F91FF90EF90EB
:1012400008951F93CF93DF93C091680116E08091BA
:101250006901C81799F0D0E01C9FF0011D9FF00DA7
:101260001124E659FE4F408151816281738184814E
:1012700095810E94BD062196C770E9CFDF91CF917D
:101280001F91089540919A0150919B0160919C019A
:1012900070919D0180919E0190919F010C94BD06DB
:1012A000EF92FF920F931F93CF93DF9380919F0153
:1012B00082958F7009F065C080919C01882309F4A4
:1012C00060C080916801F090690110919A010091CD
:1012D0009B0160919D0170919E0191E01F3F09F07B
:1012E00090E0C0910001D0910101292F96E0E92EF4
:1012F0008F1509F446C06115710521F00F3F21F0EB
:1013000030E003C031E001C0322F90E030FD36C044
:10131000E89EF001E99EF00D1124DF01A659BE4FB1
:1013200011963C911197301329C03C91311326C07E
:1013300012963C911297311121C013964D915C91F8
:101340001497461B570B4C175D07C0F480919F0103
:101350008F70806180939F01E159FE4F80818F7073
:10136000806180838AE991E00E943C06DF91CF9101
:101370001F910F91FF90EF900C94210901968770B7
:10138000B7CFDF91CF911F910F91FF90EF9008950C
:101390009F92AF92BF92CF92DF92EF92FF920F9304
:1013A0001F93CF93DF93CDB7DEB761970FB6F89455
:1013B000DEBF0FBECDBF8C0185E0F801DE011D96BA
:1013C00001900D928A95E1F7D8011296EC909091D8
:1013D0009A01E0919B0120919D0130919E01211580
:1013E000310531F0EF3F31F481E09F3F19F403C044
:1013F00081E001C080E0B82FB1709B2E80FD47C115
:10140000D8014C9111965C9111971396AD90BC90B8
:1014100014978AE9C82E81E0D82EF0909C01B5017E
:10142000621B730B2091000130910101FF2009F430
:10143000D9C080919F016217730708F095C0282FCB
:10144000207F09F052C05E1313C0491311C0FE2C57
:10145000E1100EC08F70806180939F010E9442094D
:10146000C6010E943C0680919F01F80185834DC111
:10147000AB2831F05F3F31F481E04F3F19F403C0F6
:1014800081E001C080E080FD03C081E08E2502C0C4
:1014900080E090E0F82FF170FF2E80FF1CC080915B
:1014A00068012091690136E0821709F40BC190E0D0
:1014B000389FF001399FF00D1124E659FE4F6181EC
:1014C000561306C06081461303C06281E61203C052
:1014D00001968770E9CFFE2CEE2009F416C18091A9
:1014E0009F01816080939F0154C05E1306C0491321
:1014F00004C0E11002C0F80199C0C8010E94A6060C
:10150000882361F1EE2051F120919F01822F829575
:101510008F7090E0029774F080919A0190919B01F6
:1015200098878F831986BB86AA862C87CE0107965B
:101530000E943C0686E0F801AAE9B1E001900D9214
:101540008A95E1F70E9450090E9442090AC05E177D
:1015500011F1C8010E94A60681112CC0C8010E9489
:101560003C06FF24F394D1C0282F207F81F77A2DE9
:10157000B98AA88A6E2D89890E94AE068AE991E00F
:101580000E943C0686E0D6011D928A95E9F70E94EA
:101590004209F12CBAC04913DCCFE110DACFF801CF
:1015A0008583C8010E943C0686E0D6011D928A957B
:1015B000E9F7ABC0EE2091F220919F01822F829536
:1015C0008F7090E002970CF4B5CF80919A019091C2
:1015D0009B019A8389831B82BD82AC822E83CE01BC
:1015E0000196A6CF6217730708F044C0FE2CEE20C8
:1015F00009F4B4CF5E1330C049132EC020919F016F
:1016000020FD21C0822F82958F70482F50E0411518
:101610005105C9F0F80125834F30510541F08F5F26
:10162000982F9295907F822F8F70892B8583C80188
:101630000E943C0686E0F801AAE9B1E001900D9213
:101640008A95E1F73CC086E0F801AAE9B1E0019093
:101650000D928A95E1F759C0C8010E94A606811132
:1016600069CF80919F01816080939F01C8010E9492
:101670003C064BC07A2DB98AA88A6E2D89890E94B2
:10168000AE0686E0D6011D928A95E9F718C0EE20D5
:1016900009F464CFC8010E94A606F82E882309F435
:1016A0005DCF86E0F801AAE9B1E001900D928A953C
:1016B000E1F78AE991E00E94F8020E9450090E9435
:1016C000420923C04D875E878D859E850E947608DE
:1016D000292F22952F70223028F49F7039F0811124
:1016E00005C00BC0243028F49F7049F4805E883018
:1016F00020F0C8010E943C069F2CF92C06C0D8019E
:1017000015969C91907F91F7F8CF8F2D61960FB62B
:10171000F894DEBF0FBECDBFDF91CF911F910F9127
:10172000FF90EF90DF90CF90BF90AF909F90089583
:101730001F93CF93DF93CDB7DEB72C970FB6F894F6
:10174000DEBF0FBECDBF4F83588769877A878B87EF
:101750009C87CE0107960E94C8098823D1F09F81FB
:1017600088852A853B85232B31F08F3F31F481E03A
:101770009F3F19F403C081E001C080E080FD47C0B5
:101780004F81588569857A858B859C850E94BD0629
:101790003EC086E0FE013796DE01119601900D9263
:1017A0008A95E1F7FF81E8856A857B85611571057A
:1017B00031F0EF3F31F481E0FF3F19F403C081E0E5
:1017C00001C080E080FD23C02091690130E0C901A3
:1017D0000196877099274091680150E0841795071A
:1017E000F1F1F983EA837D836C8396E0929FD001C7
:1017F000939FB00D1124A659BE4FFE013196019062
:101800000D929A95E1F7809369010E94210916E0F3
:101810008091680190916901891771F1189FC00149
:10182000112486599E4F0E94C809882329F1E0910E
:1018300068011E9FF0011124E659FE4F408151813D
:1018400062817381848195810E94BD0680916801C7
:1018500090E001968770992780936801D9CF0E9404
:101860007E061092690110926801EAE9F1E086E0D3
:10187000DF011D928A95E9F72C960FB6F894DEBF2A
:101880000FBECDBFDF91CF911F9108958091A00130
:1018900085958595859508958091A0018770089517
:1018A0009091A001977081E009F480E00895809103
:1018B000C40108959091C401892B8093C4010895B7
:1018C00080959091C40189238093C401089510925A
:1018D000C40108959091C301892B8093C301089599
:1018E00080959091C30189238093C301089510923C
:1018F000C30108959091C201892B8093C20108957C
:1019000080959091C20189238093C201089510921D
:10191000C20108958091A101089508950C948D0C41
:101920000C948E0C9091660292FD08C09091A101DA
:10193000981721F08093A1010C94900C0895809148
:10194000A101882329F01092A10180E00C94900C51
:101950000895E0910201F09103018091C401808318
:10196000E0910201F091030190818091C301892BE4
:101970008083E0910201F091030190818091C20186
:10198000892B80838091A101882381F0E09102015D
:10199000F09103019081892B8083809102019091C5
:1019A00003010E941F1881110E949F0C8091020167
:1019B000909103010C94D9170C948D0C90916602B0
:1019C00092FD10C098E0899F90011124262B20934E
:1019D000A0010E943F078091A0018595859585957E
:1019E0000C94DC0C0C943F071092A00180E00C9446
:1019F000DC0C2091A001809582238093A001982F78
:101A0000977099F430E0482F082E000C550B2417DE
:101A1000350759F09091660292FD07C0859585952E
:101A200085950E9460070C94F40C089590916602CD
:101A300092FB222720F9281769F080FB92F99093F6
:101A4000660280916502909166020E94640D82E0B8
:101A50000C94F90C08958091660282FB882780F926
:101A600091E089270C94160D81E00C94160D80E00E
:101A70000C94160D6FEF7FEF80E090E00C94DB226A
:101A800080E090E00E94B72221E0893E9E4F09F05D
:101A900020E0822F089582E090E00C94AF2283E052
:101AA00090E00C94AF22CF9384E090E00E94AF22AC
:101AB000C82F82E290E00E94AF222C2F30E0A901D3
:101AC000582BCA01CF910895CF93C92F682F84E076
:101AD00090E00E94BD226C2F82E290E0CF910C94A6
:101AE000BD22AB01BC018FE090E00C94CF22AB0192
:101AF000BC0183E190E00C94CF2260E070E0CB0168
:101B00000C94770D60E070E0CB010E94710D0C9495
:101B10007D0D69EE7EEF80E090E00E94DB2260E0C8
:101B200082E090E00E94BD2260E083E090E00E94AD
:101B3000BD2210926401109265011092660110920C
:101B4000670160E084E090E00E94BD2260E082E2F4
:101B500090E00E94BD2260E085E090E00E94BD22FE
:101B600060E086E090E00E94BD226FEF87E090E0A9
:101B70000E94BD2240E050E0BA0188E090E00E945F
:101B8000CF2260E08DE090E00E94BD2240E050E076
:101B9000BA0188E190E00E94CF2260E087E190E006
:101BA0000E94BD2240E050E0BA018CE190E00E942A
:101BB000CF2260E070E080E290E00E94DB2240E013
:101BC00050E0BA0188E190E00E94CF220C94820D8F
:101BD0000C94890D682F8EE090E00C94BD220E9439
:101BE0007D196093D0017093D1018093D2019093BD
:101BF000D3016093CC017093CD018093CE0190937B
:101C0000CF01089585B7806885BF85B7806885BF97
:101C1000089581E008950C94090E08950C940D0E1A
:101C20000C940D0E0C94100E0C940D0E0C94140EBE
:101C30000C940D0E0E94020E8BEE90E10E94C317D1
:101C40000E94180E0C94160E0E940E0E0C940D0E8F
:101C50000E9468190E94E4110E94C512E5E6F2E0B4
:101C600080818068808380916502909166020E94E5
:101C7000640D0E94211B0C94120E6F927F928F9222
:101C80009F92AF92BF92CF92DF92EF92FF920F930B
:101C90001F93CF93DF93CDB7DEB72A970FB6F89493
:101CA000DEBF0FBECDBF0E94F91181110E94EF0D62
:101CB00036EC832E31E0932E00E010E0C02E802F12
:101CC0000E942C115C01F401619071904F01682613
:101CD000792661147104B1F40F5F1F4F03301105B1
:101CE00069F78FEF89838A831B820E947119816053
:101CF000782F9D838C8349815A816B818D810E94CD
:101D0000AE023AC08091D40181FD0E943511D12CE0
:101D1000EE24E394F12CC3018E219F21892B29F11C
:101D20000E940B0E8823A9F0DE82CF82AE20BF2056
:101D300081E0AB2809F480E088870E9471198160F6
:101D4000782F9A8789874E815F8168858A850E946E
:101D5000AE02000F111FF801EA53FE4F80819181FE
:101D6000E826F926F182E08207C0D394EE0CFF1C2E
:101D7000FCE0DF12D0CFB0CF0E9499140E94CD17A3
:101D80009091C5018917D1F00E94CD178093C501AC
:101D90002A960FB6F894DEBF0FBECDBFDF91CF916C
:101DA0001F910F91FF90EF90DF90CF90BF90AF9079
:101DB0009F908F907F906F900C94A5022A960FB6FB
:101DC000F894DEBF0FBECDBFDF91CF911F910F9171
:101DD000FF90EF90DF90CF90BF90AF909F908F904B
:101DE0007F906F90089580E090E00895089524E238
:101DF000829FC0011124FC012CE0729FE00DF11DB7
:101E00001124E60FF11DEE0FFF1FE450FF4F8591E7
:101E100094910895880F991FFC01E457FE4F859116
:101E200094910895CF93DF930E941410EC018115D3
:101E300021E5920798F5811540E5940708F085C0E3
:101E4000811550E29507F0F4C11581E0D80708F03C
:101E5000E2C0C03ED10588F4C03CD10508F065C0A1
:101E6000C130D10509F45EC008F4D2C0CE01049798
:101E7000813A910508F4CFC0CBC0C83ED10508F423
:101E8000CAC0C6C0811520E4920708F05BC0811566
:101E900040E3940708F04FC09F704AC0811555E594
:101EA0009507A0F4C11584E5D80708F095C0C115C1
:101EB00023E5D20708F07BC0C11542E5D40708F03E
:101EC00061C09C2F8827816F906AA6C0811559E553
:101ED000950798F4C11588E5D80708F082C0C115A8
:101EE00026E5D20708F094C08C2F0E94A8108F71AD
:101EF00090E0982F882790628FC081154AE594075B
:101F000008F474C090568115904208F081C08D2F5E
:101F10008F710E94A8109E01332730628F71A90132
:101F2000582B74C081E090E077C0CE01805C9109AD
:101F30000E940A0F71C09927D3FF02C0986C6CC031
:101F4000906C6AC09F70906A67C0F4E09695879520
:101F5000FA95E1F7282F23703C2F337081E090E051
:101F600002C0880F991F3A95E2F79C68922B2C2F9C
:101F70002F702695269540E2249F90011124822BF4
:101F8000932B4AC09E012370332781E090E002C06A
:101F9000880F991F2A95E2F72C2F2695269550E257
:101FA000259F90011124822B932B9C6835C09E01A4
:101FB0002370332781E090E002C0880F991F2A9593
:101FC000E2F72C2F2695269540E2249F90011124BC
:101FD000822B932B9A6820C09C2F8827846F906A4D
:101FE0001BC09C2F8827806F906A16C08F700E943C
:101FF000A8109E0194E0369527959A95E1F72F70E9
:1020000030E0322F22273069A901482BCA0104C0D1
:1020100080E090E001C0CE01DF91CF9108950E9451
:10202000F70E0E94120F08958238910569F1B0F4FD
:102030008133910509F46DC048F48932910509F4A2
:1020400063C08A32910509F469C00895853391050A
:1020500009F455C089339105B9F00895833E91057F
:1020600069F138F4803E9105B1F0823E910509F1A5
:102070000895863E9105A9F1873E9105B9F1843E08
:10208000910509F064C023C02091650220FD4FC076
:1020900021FD4DC008958091650280FD44C080916E
:1020A000660280FF44C08091650284FD42C083EED9
:1020B0004DC08091650282FF38C0F5CF80916502E6
:1020C00082FD33C08091660280FD31C0ECCF8091EB
:1020D000660281FF32C08091650284FD2AC087EECE
:1020E00035C08091650283FF26C0F5CF80916502DF
:1020F00083FD21C08091660281FD1FC0ECCF8091DD
:10210000650285FD1CC01DC08091650285FD19C05A
:1021100016C08091650286FD16C017C080916502C9
:1021200086FD13C010C089E311C082EE0FC080EE9F
:102130000DC080E00BC086EE09C084EE07C089E2C6
:1021400005C085E303C08AE201C081E390E0089501
:102150009091650292FF0DC0282F2871283019F444
:10216000877F846006C0282F2471243011F48B7F70
:10217000886093FF0DC0282F2871283119F4877EBD
:10218000846106C0282F2471243111F48B7E88616C
:102190002091660220FF0DC0382F3871383019F4B5
:1021A000877F816006C0382F3171313011F48E7F06
:1021B000886021FF0DC0282F2871283119F4877EEF
:1021C000816106C0282F2171213111F48E7E886132
:1021D00094FD877E089580E008950C943A0D0E9446
:1021E000F9112FEF86E791E0215080409040E1F710
:1021F00000C000000E94F91180E00E942C1180FFB5
:1022000004C00E94ED100C94BE1908950C94EF10B8
:102210000E94400D811102C00E94E80D0E944B0DEA
:102220008093D4010E94530D9093660280936502BF
:102230000E9406110E944F0D682F70E080E090E030
:102240000E94DF06609160017091610180916201DE
:10225000909163010C941707E82FF0E0EE0FFF1F39
:10226000E359FD4F808191810895089580EA8A9510
:10227000F1F7089500C008950C94361108950C9458
:102280003E110C943F110C94CA01F894E82FE2958A
:10229000EF70F0E031A1282F2F7081E090E001C0B5
:1022A000880F2A95EAF7982F9095932391A392A1EE
:1022B000892B82A378940895CF93DF9384E30E94BF
:1022C000451182E30E94451185E30E944511C4E354
:1022D000D1E089918F3F11F00E94451181E0C03417
:1022E000D807B9F7DF91CF910895BF92CF92DF92CF
:1022F000EF92FF920F931F93CF93DF938C01C62F22
:10230000D0E0CE01805C9E4F6C01FC0190819F3F2C
:1023100009F450C0B62EF894E92FE295EF70F0E082
:1023200081A19F7021E030E001C0220F9A95EAF769
:10233000822B81A382A12095282322A378940E9436
:102340003A11E4E3F1E040E451E021E030E0E12C37
:10235000F12C61916F3F89F0A62FA295AF70B0E08C
:1023600090968C9190E06F7002C0959587956A95D4
:10237000E2F780FD02C0C90102C080E090E0E82AD7
:10238000F92A220F331F4E175F0719F7F6018081D4
:102390008F3F11F00E94451161E0E114F10409F44E
:1023A00060E08B2D0E943C11CC0FDD1FC00FD11FB0
:1023B000F982E882DF91CF911F910F91FF90EF900A
:1023C000DF90CF90BF9008950E945C1186E0EDE60B
:1023D000F2E0DF01982F1D929A95E9F7E7E6F2E027
:1023E000DF011D928A95E9F783E00E9444120C9464
:1023F0001F02FF920F931F93CF93DF9300D000D063
:1024000000D0CDB7DEB78E010F5F1F4F86E0F80119
:1024100011928A95E9F760E0C8010E94751161E0A8
:10242000C8010E94751162E0C8010E94751146E062
:1024300050E0B80187E692E00E94A222FF24F394C4
:10244000009709F4F12C892B41F086E0F801A7E60A
:10245000B2E001900D928A95E1F72F2D43E06DE6F1
:1024600072E087E692E00E9445120E9425028F2DBD
:1024700026960FB6F894DEBF0FBECDBFDF91CF9189
:102480001F910F91FF9008950895FF920F931F934E
:10249000CF93DF93F82E092F162FD72FC42F222387
:1024A00049F081E08093D7010E9471199093D60181
:1024B0008093D5018091D7018823D9F08091D501EF
:1024C0009091D6010E948919059798F0EF2DF02F71
:1024D000A12FBD2F80E090E04C2F50E0841795078E
:1024E00034F4219131912D933D930196F7CF1092C1
:1024F000D701DF91CF911F910F91FF9008950E9416
:10250000951B0E94280E0C94A11B0E94A51B0E94E3
:102510003D0E0C94BF1B0E94F7180E947C1B0E946A
:102520001A0E0E947F120E9485120E94240EFBCF79
:102530009091DB01890F883008F088500895CF937F
:10254000DF9300D000D01F92CDB7DEB76B837C83C2
:102550008D838C819D81892B31F05F3F31F481E047
:102560004F3F19F403C081E001C080E080FD02C04C
:102570008B8102C080E090E081700F900F900F90EF
:102580000F900F90DF91CF9108950E94400D81111F
:1025900002C00E94E80D8DE090E00E94AF2280937F
:1025A0002202089596E0E1E3F2E0DF01292F1D9277
:1025B0002A95E9F7EBE2F2E0DF01292F1D922A9537
:1025C000E9F7E5E2F2E0DF011D929A95E9F7109252
:1025D000DB011092DA011092D9011092D801109209
:1025E000E1011092E00180932202682F8DE090E0DB
:1025F0000C94BD2281E00895CF93DF936BE272E0EB
:10260000809122020E94FA12882319F180912202FD
:10261000882351F08130E9F480912B028068809307
:102620002B02CBE2D2E00EC0CBE2D2E08991811145
:102630000E94401B82E0CF32D807C1F780E00E94A1
:10264000401B07C089910E94401B92E0C133D9070B
:10265000C9F786E0EBE2F2E0DF01982F1D929A9530
:10266000E9F7E1E3F2E0A5E2B2E001900D928A958C
:10267000E1F7DF91CF91089581E0089581E0089519
:10268000EF92FF920F931F93CF93DF937C01EB01A7
:1026900080E3E8168AE5F80661F028F4C7019A5548
:1026A0008A9778F13DC1F1E3EF16FAE5FF06A1F054
:1026B00037C180E39AE50E943E13882309F4E6C0FF
:1026C000488159816A817B818C810E949F12882375
:1026D00009F4DCC080E012C081E39AE50E943E1359
:1026E000882309F4D3C0488159816A817B818C8118
:1026F0000E949F12882309F4C9C081E00E94D2126F
:10270000C5C0C7010E943E13882309F4BFC01092C0
:10271000E1011092E0010E9471198C019093DF0198
:102720008093DE01488159816A817B818C810E947E
:102730009F12882321F01093DD010093DC0110919A
:102740002202112321F0113009F444C085C04881D0
:1027500059816A817B818C810E949F12F701FF273A
:10276000E457FE4F9491292F2295269526952370A4
:10277000882369F0A22FB0E0FD01EF5CFD4F80815E
:10278000892B8083A55DBD4FEC91E92B21C086E0AC
:10279000E1E3F2E0ABE2B2E001900D928A95E1F75D
:1027A000A22FB0E09D012B5D3D4FF9018081592F93
:1027B000582341E009F040E040932402492F40951E
:1027C0008423F9018083AF5CBD4F9C91E42FE92302
:1027D000EC9342C0488159816A817B818C810E943F
:1027E0009F12E82F8E2D67E00E947C22292F90E017
:1027F00046E050E0421B510921E030E001C0220FC9
:102800004A95EAF7AC014F5C5D4FEE2351F0FA01B7
:102810003081322B3083FC01E55DFD4F9081292B07
:102820001AC066E0E1E3F2E0ABE2B2E001900D92A3
:102830006A95E1F7FC01EB5DFD4F8081682F622313
:1028400091E009F090E09093240220958223808308
:10285000FA01808128232083009123022BE232E0B9
:10286000412FBE01C7010E943C13882379F04881A3
:1028700059816A817B818C810E949F12C82F80912F
:102880002302CC2329F08F5F80932302C0E049C04C
:10289000815018161CF48093230202C01092230268
:1028A000809124028823A1F1D091DA01D83051F42B
:1028B0008091DB018093D90181E00E94981280937E
:1028C000DB0108C08D2F0E9498128093D901DF5F31
:1028D000D093DA018091D90190E026E0289FD001C1
:1028E000299FB00D1124AE50BE4FEBE2F2E00190F3
:1028F0000D922A95E1F7880F991FFC01EE51FE4FCA
:102900008091DC019091DD01918380830E94FC1213
:1029100080912402882309F4B9CF0E94FC1201C0DF
:10292000C1E08C2FDF91CF911F910F91FF90EF901D
:1029300008959F92AF92BF92CF92DF92EF92FF9253
:102940000F931F93CF93DF938091230218160CF0FF
:10295000E6C08091DA01882309F4E1C08091DE01AC
:102960009091DF010E9489198C01E091D901F0E07A
:10297000EE0FFF1FEE51FE4FC091DC01D091DD0143
:1029800080819181C81BD90B09F48DC08091E00131
:102990009091E101009709F08CC00C171D0708F415
:1029A000BEC022E32C9FC0012D9F900D112464E630
:1029B00070E00E948822A090DA01BA2C6E01C61A3B
:1029C000D70A7E01E60EF71EBB2049F199249A949E
:1029D0009B0C892D0E949812E82FF0E0EE0FFF1F4C
:1029E000EE51FE4F208131818091DC019091DD011B
:1029F000821B930B8C159D0548F48B2D0E94981219
:102A00008093DB01AB18A092DA0109C0E816F90641
:102A1000A0F33093DD012093DC01B92CD5CFE090F9
:102A2000DA01F12C86E0C82EFE1409F478C08F2D4F
:102A30000E949812D82EC89EB00111246E507E4F6D
:102A400046E050E081E392E00E94A222892BD1F47B
:102A5000D092DB01EF18E092DA0188E08093D80190
:102A600024E62C9FC0012D9F900D112460E971E098
:102A70000E9488226431710538F07093E1016093FF
:102A8000E00108C0F394D0CF84E190E09093E1019D
:102A90008093E00186E0E1E3F2E0A5E2B2E001909C
:102AA0000D928A95E1F78091E0019091E101009704
:102AB000B1F12091D801283079F58E3521E09207C7
:102AC00010F48EE591E00817190748F11092D8012B
:102AD0008091D8010E94981296E0989FF0011124ED
:102AE000EE50FE4FABE2B2E001900D929A95E1F705
:102AF0000E94FC128091D8018F5F8093D801909141
:102B0000DA01891302C01092D8010E9471199093C2
:102B1000DF018093DE0103C008171907C8F6DF91B3
:102B2000CF911F910F91FF90EF90DF90CF90BF90CA
:102B3000AF909F900895CF93DF93EC01FB018281CA
:102B4000882309F426C1C430FDE5DF0760F4CB3FDC
:102B50009CE5D90768F49E0122503C45243131059B
:102B600008F018C105C0C236EDE5DE0709F012C154
:102B70000E94530D9093660280936502C031FCE57C
:102B8000DF0709F4CAC008F041C0C8309CE5D90786
:102B900009F4A4C0F0F4C430FCE5DF0709F48CC0EC
:102BA00068F4C2309CE5D90709F482C0C330DC4523
:102BB00009F0E5C0809165028260DFC0C630FCE5A7
:102BC000DF0709F483C008F085C080916502886042
:102BD000D4C0CC309CE5D90709F490C068F4CA3061
:102BE000FCE5DF0709F47EC008F084C00E947E0681
:102BF000809165028068C1C0CE309CE5D90709F498
:102C000081C008F086C08091650294C0CD3FFCE58C
:102C1000DF0709F47BC038F5C4319CE5D90709F416
:102C20009AC058F4C231FCE5DF0709F47AC008F015
:102C30007EC0809165028F7BA0C0CB3F9CE5D90709
:102C4000F1F108F03FC0C531DC4509F098C0809132
:102C5000650282FB222720F991E0922790FB82F9FE
:102C600090FB83F98AC0C1308DE5D80709F467C0AD
:102C700050F480916602CF3FECE5DE07C1F108F029
:102C80005BC08D7F65C0C3308DE5D80709F471C086
:102C900008F46DC0C236DD4509F071C0809165024F
:102CA00084FB222720F991E0922790FB84F965C0EC
:102CB00080916502816061C08091650216C080913B
:102CC000660216C080916602826042C080916502F1
:102CD000806153C08091650280624FC0809165021F
:102CE00080644BC0809165028860846046C08260C9
:102CF00081602EC0809165028E7F3FC08091650209
:102D00008D7F3BC080916502877F37C080916602CE
:102D100014C0809165028F7E30C0809165028F7DE6
:102D20002CC00E947E06809165028F7726C080911C
:102D30006502877F8B7F21C08D7F8E7F09C0809148
:102D40006602982F909591708E7F892B90FB81F968
:102D50008093660214C00E947E068091650287FB04
:102D6000222720F991E0922790FB87F906C081E0A5
:102D700001C080E00E94EA0D02C08093650280914C
:102D80006502909166020E94640D0E947E0680E0BA
:102D900001C081E0DF91CF910895CF93DF93863119
:102DA0009C4541F5EB010E94570C982F8A81209198
:102DB000020130910301882379F09A7A81E009F4C5
:102DC00080E080933702911102C069E201C065E39F
:102DD000C9010E94B5180AC080913702811102C052
:102DE00069E201C065E3C9010E94C0180E94A90CF4
:102DF00080E001C081E0DF91CF9108950F931F9390
:102E0000CF93DF93C42FD22FFC0182818823C9F096
:102E100040933A020E9471199093390280933802CC
:102E200080E28C0F883008F057C0C77081E001C085
:102E3000880FCA95EAF7DF91CF911F910F910C94FB
:102E4000050480913A02481330C080913802909175
:102E500039020E948919883C910538F510E21D0F4E
:102E6000CD17B9F080E28C0F883040F4C77081E054
:102E700001C0880FCA95EAF70E940C04183028F5A3
:102E800081E09D2F977001C0880F9A95EAF70E9404
:102E90000504802F0E94FC031830F0F4D77081E005
:102EA00001C0880FDA95EAF70AC080E28C0F8830FB
:102EB00098F4C77081E001C0880FCA95EAF7DF91E6
:102EC000CF911F910F910C940C04802FDF91CF9123
:102ED0001F910F910C94FC03DF91CF911F910F91E3
:102EE00008950F939C01CB01243F4CE5340731F149
:102EF00088F4293DFCE53F07D9F02A3D4CE534072D
:102F000079F1283D3C45A9F506E221EE41EE68ED58
:102F10007CE52BC0263FFCE53F07E1F0A8F0273F0A
:102F20003C4539F507E225EE46EE67EF7CE51DC02E
:102F300007E225EE45EE69ED7CE517C006E221EEDD
:102F400040EE64EF7CE511C007E225EE44EE65EF4C
:102F50007CE50BC006E221EE42EE66EF7CE505C0A3
:102F600008E221E045EE6AED7CE50E94FE1680E075
:102F700008C0FC018281882319F010923A0201C036
:102F800081E00F9108959093450180934401089545
:102F90009093400280933F020895E0913F02F091A8
:102FA0004002309721F00190F081E02D099480E0FB
:102FB0000895E0913F02F0914002309799F02091FE
:102FC0002B01222359F02091650227FF07C0DC0165
:102FD0002C9111962C93119726E02C930280F3816B
:102FE000E02D0994089520913D0230913E0228176A
:102FF000390771F090933E0280933D02E0913F02C9
:10300000F0914002309721F00680F781E02D09947D
:10301000089520913B0230913C022817390771F046
:1030200090933C0280933B02E0913F02F09140027A
:10303000309721F00084F185E02D09940895FC017A
:10304000329680912B01882331F08091650287FFB1
:1030500002C09EE101C096E080E0915028F02191ED
:103060002223D9F38F5FF9CF0895662351F1209180
:103070002B012223E9F02091650227FF19C0462F7A
:103080004695469546954E31E0F4677021E030E074
:1030900002C0220F331F6A95E2F7FC01E40FF11D15
:1030A000828190E02823392381E0232B69F409C031
:1030B000FC01329608962191621729F0E817F9076A
:1030C000D1F780E0089581E008959C01FC013296DB
:1030D0009FEF80E04191461789F09F3F19F441111D
:1030E00001C0982F8F5F8630A9F79F3F39F0F90113
:1030F000E90FF11D97FDFA956283089508959C01EB
:103100002A5F3F4FFC014281461301C012820196A3
:1031100082179307B9F70895262F269526952695A9
:103120002E3168F4FC01E20FF11D677021E030E000
:1031300001C0220F6A95EAF78281282B2283089525
:10314000262F2695269526952E3170F4FC01E20F48
:10315000F11D677021E030E001C0220F6A95EAF7A7
:103160002095828128232283089520912B012223F8
:1031700029F02091650227FD0C948C180C94651899
:1031800020912B01222329F02091650227FD0C9428
:10319000A0180C947F1820912B01FC013296222359
:1031A00031F08091650287FF02C08EE101C086E0A8
:1031B000DF011D928A95E9F7089508950C94DD18B2
:1031C00083E0809341020C94DE18811102C081E0FB
:1031D00001C082E0809341020C94DE180C94E51843
:1031E00081E0809341020C94DE180C94F01808954D
:1031F00080917B02843031F10E94270210924202BA
:1032000020E488E190E00FB6F894A89580936000E0
:103210000FBE2093600083B7817F846083BF83B734
:10322000816083BF7894889583B78E7F83BF0FB604
:10323000F894A89580916000886180936000109256
:1032400060000FBE089508950C942319CF930E9437
:1032500024190E94F9110E942319C0E08C2F0E94AA
:103260002C11892B29F4CF5FC330C1F780E001C056
:1032700081E0CF9108950E947E060C9497021F92E0
:103280000F920FB60F9211248F939F93AF93BF931A
:1032900080914202811113C0809173029091740257
:1032A000A0917502B09176024196A11DB11D809347
:1032B000730290937402A0937502B0937602BF914B
:1032C000AF919F918F910F900FBE0F901F90189507
:1032D00082E084BD93E095BD9AEF97BD80936E0028
:1032E00008952FB7F8948091730290917402A09181
:1032F0007502B09176022FBF08952FB7F8946091B0
:1033000073027091740280917502909176022FBFC2
:1033100008959C014FB7F8948091730290917402C4
:10332000A0917502B09176024FBF821B930B089556
:1033300078941F920F920FB60F9211248F939F9340
:10334000AF93BF938091730290917402A091750224
:10335000B09176020196A11DB11D809373029093E6
:103360007402A0937502B0937602BF91AF919F91C2
:103370008F910F900FBE0F901F90189587E797E7DA
:1033800090930108809300089AE088E10FB6F894C2
:10339000A895809360000FBE90936000FFCF80914E
:1033A0006302089508950895CF93DF9320912B0130
:1033B000222339F02091650227FF03C060E222E05A
:1033C00002C068E021E02093E9002FEF3091E8008F
:1033D000215035FD06C035ED3A95F1F70000211179
:1033E000F5CF2091E80025FF1DC0EC0180912B0155
:1033F000811105C040E050E068E070E003C070E07B
:1034000040E050E0CE010E94361C8091E8008E77AB
:103410008093E80080E2FE01A3E4B2E001900D9207
:103420008A95E1F7DF91CF910895089508958091ED
:103430007A02811109C00E94C71D0E94241E80913A
:10344000E20084608093E200089510927A02089569
:103450000C94F5186091770281E0611101C080E061
:103460000C94E01890917B0281E0943009F080E0A8
:10347000609177020C94E51842E061EC81E00E94D3
:10348000401D42E261EC82E00E94401D42E061EC9E
:1034900083E00E94401D42E160E885E00E94401DFB
:1034A00042E161E884E00E94401D90917B0281E04E
:1034B000943009F080E0609177020C94EE188091CE
:1034C0007D02833009F461C030F4813071F08230C4
:1034D00009F49BC0B2C08A3009F487C08B3009F46C
:1034E0006CC0893009F0A9C020C080917C02813A6B
:1034F00009F0A3C08091E800877F8093E800809165
:10350000800290918102892B21F460E283E492E0B1
:1035100003C060E080E090E070E00E94811C809138
:10352000E8008B778093E80088C080917C0281322C
:1035300009F083C08091800290918102029708F087
:103540007CC08091E800877F8093E8008091E8004C
:1035500082FD05C080917B028111F8CF08952091F2
:10356000F3008091F20090E0922B029731F4809169
:10357000F100813011F0863021F48091F1008093C8
:1035800063028091E8008B7754C080917C02813A7D
:1035900009F053C08091800290918102892B09F03B
:1035A0004CC08091E800877F8093E8008091E8001C
:1035B00080FFFCCF80912B0137C080917C0281324B
:1035C000E1F58091800290918102892BB1F5809183
:1035D000E800877F8093E8000E94751D80917E023D
:1035E00080932B010E947E0628C080917C0281324C
:1035F00021F58091E800877F8093E8000E94751D87
:1036000080917F028093640218C080917C02813A8D
:10361000A1F48091E800877F8093E8008091E80022
:1036200080FFFCCF809164028093F1008091E800DC
:103630008E778093E8000E94751D84E091E00C94E1
:10364000C52182E090E0909317018093160184E0F9
:1036500091E00C947C210895CF93DF9384E091E076
:103660000E941A21EC01209741F084E091E00E9431
:1036700047210E942B1B2197F6CFDF91CF91089510
:10368000CF93C091E9002091EC00922F917020FD22
:1036900090E82091140120FF2DC0CF70C92B90918C
:1036A00005019F709093E9009091EB0090FF1FC07F
:1036B0009091EE0097FF1BC09FEF2091E800915082
:1036C00025FD06C025ED2A95F1F700009111F5CFF3
:1036D0008093F10084E091E00E94D4208091E80082
:1036E00080FF05C08091E8008E778093E800CF705E
:1036F000C093E900CF91089584B7877F84BF0FB648
:10370000F894A89580916000886180936000109281
:1037100060000FBE90E080E80FB6F89480936100DF
:10372000909361000FBE0C94F0180E94C71D0E9478
:10373000241EE2EEF0E080818460808378940C9413
:10374000B9208FE191E00C94C81780917B028530FD
:10375000A9F480917B02853079F40E94F818809159
:1037600079028823B1F30E942619882391F30E94DD
:10377000201C0E947E06EDCF0C943B1908950E94F8
:103780002C1B84E091E00C9403210C94C71B292F7F
:10379000332723303105C9F060F42130310581F041
:1037A0002230310509F044C088E790E02CEF31E089
:1037B00043C021323105E1F02232310549F138C0F0
:1037C00082E190E024E732E037C09927813091050B
:1037D00049F028F0029761F5ECECF1E005C0E8EF64
:1037E000F1E002C0E6EEF1E0849190E09F0124C098
:1037F0006115710541F061307105D1F489E090E007
:1038000027E232E019C089E090E02EE032E014C0F7
:103810006115710541F06130710551F48BE390E061
:1038200026E832E009C080E490E021EC32E004C0F8
:1038300080E090E020E030E0FA01318320830895B9
:1038400080E189BD82E189BD09B400FEFDCF809190
:10385000D8008F7D8093D8008091E00082608093B3
:10386000E0008091E00081FDFCCF0895CF92DF92CF
:10387000EF92FF920F931F93CF93DF93EC018B0195
:103880007A010E94941D811133C0E114F10439F0D2
:10389000F70180819181081B190BC80FD91FC12C1A
:1038A000D12C0115110519F18091E80085FD16C094
:1038B0008091E8008E778093E800E114F10449F0EC
:1038C000F70180819181C80ED91ED182C08285E026
:1038D0000FC00E94941D882321F30AC08991809310
:1038E000F10001501109FFEFCF1ADF0ADACF80E0B3
:1038F000DF91CF911F910F91FF90EF90DF90CF90CC
:10390000089520918202309183022617370748F0EC
:103910006115710539F42091E8002E772093E800B5
:1039200001C0B901FC0120E06115710579F18091B8
:103930007B028823F1F18530F1F18091E80083FD6D
:103940003CC08091E80082FD2EC08091E80080FF9D
:10395000EBCF2091F3008091F20090E0922B611563
:10396000710551F08830910538F421912093F100D0
:10397000615071090196F3CF21E0089709F020E02A
:103980008091E8008E778093E800CECF2111CFCFD1
:103990000AC080917B02882361F0853061F08091BC
:1039A000E80083FD0AC08091E80082FFF2CF80E04A
:1039B000089582E0089583E0089581E008952091BC
:1039C0008202309183022617370748F0611571058E
:1039D00039F42091E8002E772093E80001C0B90166
:1039E000FC0120E06115710591F180917B02882333
:1039F00009F440C0853009F43FC08091E80083FDA0
:103A00003DC08091E80082FD2FC08091E80080FFDA
:103A1000E9CF2091F3008091F20090E0922B6115A4
:103A2000710559F08830910540F424912093F100FC
:103A30003196615071090196F2CF21E0089709F0A3
:103A400020E08091E8008E778093E800CBCF2111B1
:103A5000CCCF0AC080917B02882361F0853061F071
:103A60008091E80083FD0AC08091E80082FFF2CFD8
:103A700080E0089582E0089583E0089581E008954C
:103A8000982F973068F59093E900981739F0709166
:103A9000EC002091ED005091F00003C0242F762F10
:103AA00050E021FD02C09F5FECCF3091EB003E7FE4
:103AB0003093EB003091ED003D7F3093ED0030917D
:103AC000EB0031603093EB007093EC002093ED003D
:103AD0005093F0002091EE0027FDE5CF80E008959F
:103AE0008F708093E90081E0089580917C0287FFC8
:103AF00011C08091E80082FD05C080917B02811198
:103B0000F8CF11C08091E8008B770BC080917B02C9
:103B1000882349F08091E80080FFF8CF8091E80089
:103B20008E778093E80008952091E4003091E500BD
:103B300095E64091EC00842F817040FF23C0809176
:103B4000E80080FD1DC080917B02882399F08530BC
:103B500099F08091EB0085FD11C04091E4005091F7
:103B6000E5002417350729F3915011F09A01E1CFB0
:103B700084E0089582E0089583E0089581E0089547
:103B800080E008954091E80042FFDDCF08950E9453
:103B9000351E0E943D1EE0EEF0E080818160808352
:103BA000E8EDF0E080818F77808319BCA7EDB0E06D
:103BB0008C918E7F8C9380818F7E808310927A028D
:103BC00008950F931F93CF93DF930E94351E0E9499
:103BD0003D1EC8EDD0E088818F778883888180681A
:103BE000888388818F7D888319BC10927B02109214
:103BF0007702109279021092780200EE10E0F8013C
:103C000080818B7F808388818160888342E060E04F
:103C100080E00E94401DE1EEF0E080818E7F808395
:103C2000E2EEF0E080818160808380818860808323
:103C3000F80180818E7F8083888180618883DF9115
:103C4000CF911F910F910895E8EDF0E080818F7E74
:103C50008083E7EDF0E080818160808384E082BF33
:103C600081E080937A020C94E11DE8EDF0E0808120
:103C70008E7F80831092E20008951092DA001092F5
:103C8000E10008951F920F920FB60F9211242F9307
:103C90003F934F935F936F937F938F939F93AF93D4
:103CA000BF93EF93FF938091E10082FF0BC080915F
:103CB000E20082FF07C08091E1008B7F8093E100EA
:103CC0000E94B8208091DA0080FF1FC08091D80048
:103CD00080FF1BC08091DA008E7F8093DA00809194
:103CE000D90080FF0DC080E189BD82E189BD09B4A2
:103CF00000FEFDCF81E080937B020E94171A05C071
:103D000019BC10927B020E94251A8091E10080FF6D
:103D100019C08091E20080FF15C08091E2008E7F83
:103D20008093E2008091E20080618093E2008091C4
:103D3000D80080628093D80019BC85E080937B0214
:103D40000E942A1A8091E10084FF30C08091E20035
:103D500084FF2CC080E189BD82E189BD09B400FEE9
:103D6000FDCF8091D8008F7D8093D8008091E100B5
:103D70008F7E8093E1008091E2008F7E8093E2004D
:103D80008091E20081608093E20080917702882335
:103D900011F084E007C08091E30087FD02C081E05C
:103DA00001C083E080937B020E94321A8091E1007F
:103DB00083FF29C08091E20083FF25C08091E1004C
:103DC000877F8093E10082E080937B0210927702EC
:103DD0008091E1008E7F8093E1008091E2008E7FF0
:103DE0008093E2008091E20080618093E20042E0F3
:103DF00060E080E00E94401D8091F0008860809328
:103E0000F0000E94281AFF91EF91BF91AF919F910E
:103E10008F917F916F915F914F913F912F910F9073
:103E20000FBE0F901F9018951F920F920FB60F9212
:103E300011242F933F934F935F936F937F938F93AF
:103E40009F93AF93BF93CF93DF93EF93FF93C09173
:103E5000E900CF708091EC00D82FD17080FDD0E8C0
:103E60001092E9008091F000877F8093F0007894B1
:103E70000E94581F1092E9008091F00088608093A2
:103E8000F000CD2BCF70C093E900FF91EF91DF914F
:103E9000CF91BF91AF919F918F917F916F915F91E2
:103EA0004F913F912F910F900FBE0F901F9018953B
:103EB0001F93CF93DF93CDB7DEB7AA970FB6F894D1
:103EC000DEBF0FBECDBFECE7F2E08091F100819341
:103ED00022E0E438F207C9F70E945F1A8091E800F7
:103EE00083FF2EC180917C0290917D02492F50E08A
:103EF0004A30510508F024C1FA01EC58FF4F0C94E8
:103F00009C22803821F0823809F01AC108C08091C3
:103F1000780290917902992389F082600FC0809194
:103F200080028F70873008F00BC18093E900809188
:103F3000EB0085FB882780F91092E9009091E8005A
:103F4000977F9093E8008093F1001092F100D1C028
:103F5000282F2D7F09F0F4C0882319F0823061F0FA
:103F6000EFC080917E02813009F0EAC0933009F001
:103F700080E0809379022EC080917E0281112AC058
:103F8000809180028F702FEF280F263008F0D8C064
:103F90008093E9002091EB0020FF1CC0933021F4B6
:103FA0008091EB00806214C09091EB00906190933F
:103FB000EB0021E030E0A90102C0440F551F8A95B3
:103FC000E2F74093EA001092EA008091EB008860EB
:103FD0008093EB001092E9008091E800877F809346
:103FE000E8000E94751DACC08111AAC010917E022C
:103FF0001F778091E3008078812B8093E30080918C
:10400000E800877F8093E8000E94751D8091E8009A
:1040100080FFFCCF8091E30080688093E300111162
:1040200002C082E001C083E080937B0289C0805897
:10403000823008F085C080917E0290917F028C3D95
:1040400053E0950779F583E08A838AE289834FB745
:10405000F894DE01139620E03EE051E2E32FF0E019
:1040600050935700E49120FF03C0E295EF703F5F4B
:10407000EF708E2F90E0EA3010F0C79601C0C09626
:104080008D939D932F5F243149F74FBF8091E800B6
:10409000877F8093E8006AE270E0CE0101960E947B
:1040A000811C16C06091800270918102AE014F5F49
:1040B0005F4F0E94C51BBC01892B09F441C0909140
:1040C000E800977F9093E80089819A810E94DF1C25
:1040D0008091E8008B778093E80032C0803881F5CA
:1040E0008091E800877F8093E80080917702809339
:1040F000F1008091E8008E7772CF811121C080910C
:104100007E0290917F0299270297D4F48091E80073
:10411000877F8093E80080917E02809377020E94DF
:10412000751D80917702811106C08091E30087FDA3
:1041300002C081E001C084E080937B020E943C1AAF
:104140008091E80083FF0AC08091E800877F809318
:10415000E8008091EB0080628093EB00AA960FB696
:10416000F894DEBF0FBECDBFDF91CF911F910895B0
:104170000895CF9380917B028823A1F0C091E9003C
:10418000CF709091EC00892F817090FD80E8C82B52
:104190001092E9008091E80083FD0E94581FCF70C3
:1041A000C093E900CF91089520917B02243049F516
:1041B000FC014489558966897789452B462B472B15
:1041C00001F181818F708093E9002091F30080914B
:1041D000F20090E0922B892B91F09091E800809171
:1041E000E8008E778093E80095FD09C00E94941D39
:1041F000811108C08091E8008E778093E80080E00C
:10420000089582E0089520917B02243091F4FC010E
:104210004489558966897789452B462B472B49F078
:1042200021812F702093E9002091E80020FD0C945B
:10423000D420089520917B02243019F080E090E092
:104240000895FC014489558966897789452B462B59
:10425000472BA1F386818F708093E9008091E8005D
:1042600082FFECCF2091F3008091F20090E0922B3E
:10427000009731F42091E8002B772093E80008950F
:104280002091F3008091F20090E0922B089520910C
:104290007B02243019F08FEF9FEF0895FC014489D1
:1042A000558966897789452B462B472BA1F3868153
:1042B0008F708093E9008091E80082FFECCF20911D
:1042C000F3008091F20090E0922B892B21F0209155
:1042D000F10030E002C02FEF3FEF4091F3008091FA
:1042E000F20090E0942B892B29F48091E8008B77E1
:1042F0008093E800C90108950F931F93CF93DF9334
:10430000CDB7DEB728970FB6F894DEBF0FBECDBF8E
:1043100020917B02243061F5FC014489558966892E
:104320007789452B462B472B19F18C0183858F709C
:104330008093E90088E0ECE2F1E0DE011196019063
:104340000D928A95E1F740E050E068E070E0CE0120
:1043500001960E94361C40E050E062E070E0C80127
:1043600042960E94361C8091E8008E778093E80088
:1043700028960FB6F894DEBF0FBECDBFDF91CF9168
:104380001F910F91089508950895CF93DF93EC0145
:104390008091E80083FFADC0888190E02091800289
:1043A000309181022817390709F0A3C080917D025E
:1043B000813261F020F4803209F43FC09AC0823229
:1043C00009F46FC0833209F482C093C080917C02EB
:1043D000813A09F08EC08091E800877F8093E800E1
:1043E0008091E80080FFFCCF8C899D89AE89BF89D0
:1043F0008093F100492F5A2F6B2F77274093F100BC
:10440000AD01662777274093F1008B2F9927AA27C4
:10441000BB278093F100888D8093F100898D809374
:10442000F1008A8D8093F1008091E8008E7780936F
:10443000E800DF91CF910C94751D80917C02813250
:1044400009F057C08091E800877F8093E800809151
:10445000E80082FD05C080917B028111F8CF49C040
:104460003091F1002091F1009091F1008091F100E4
:104470003C8B2D8B9E8B8F8B8091F100888F809150
:10448000F100898F8091F1008A8F8091E8008B770D
:104490008093E8000E94751DCE01DF91CF910C94AE
:1044A000C32180917C02813221F58091E800877FD1
:1044B0008093E8000E94751D80917E0290917F029A
:1044C000998B888BCE01DF91CF910C94C321809181
:1044D0007C02813271F48091E800877F8093E8004C
:1044E0000E94751D60917E02CE01DF91CF910C94E8
:1044F000C421DF91CF910895991B79E004C0991FE1
:10450000961708F0961B881F7A95C9F7809508952D
:10451000AA1BBB1B51E107C0AA1FBB1FA617B707E9
:1045200010F0A61BB70B881F991F5A95A9F7809505
:104530009095BC01CD010895EE0FFF1F0590F491F9
:10454000E02D0994FB01DC0104C08D9101908019DC
:1045500021F441505040C8F7881B990B0895F999F0
:10456000FECF92BD81BDF89A992780B50895A8E144
:10457000B0E042E050E00C94E322262FF999FECF00
:1045800092BD81BDF89A019700B4021639F01FBAA6
:1045900020BD0FB6F894FA9AF99A0FBE08950396C3
:1045A000272F0E94BE220E94BD22252F0E94BE22DC
:1045B000242F0C94BE220196272F0E94BE220C9419
:1045C000BD22DC01CB01FC01F999FECF06C0F2BD92
:1045D000E1BDF89A319600B40D9241505040B8F7C1
:0645E0000895F894FFCFDE
:1045E600C800A2010284100000010510000001832A
:1045F600080000010000000000000000000000CFDD
:1046060019D419151A161AD219D31901A1200000A6
:1046160000000200F4F5F6F73133C69766949091E0
:0446260034323500F5
:00000001FF
