:100000000C946F010C948C010C948C010C948C0159
:100010000C948C010C948C010C948C010C948C012C
:100020000C948C010C948C010C941E1B0C94F01BF2
:100030000C94DA150C948C010C948C010C948C01AA
:100040000C948C010C948C010C948C010C948C01FC
:100050000C948C010C9463160C948C010C948C0100
:100060000C948C010C948C010C948C010C948C01DC
:100070000C948C010C948C010C948C010C948C01CC
:100080000C948C010C948C010C948C010C948C01BC
:100090000C948C010C948C010C948C010C948C01AC
:1000A0000C948C010C948C010C948C019D039D0389
:1000B000C903C9033E053E053E053E053104CA0499
:1000C000DB04DB04581C7F1C771D7F1C771DCB1CB9
:1000D000EE1C771D451D541D0000075A095A0B5A86
:1000E0000D5A115A165A1A5A1C5A1E5A205A225A76
:1000F0000153085A0A5A0C5A0E5A125A175A1B5AC6
:100100001D5A1F5A215A295A000000000000015AA6
:100110000F5A105A185A195A025A000000000000CB
:100120002A0014001A000800150017001C0018000F
:100130000C00120013002F000153040016000700EA
:1001400009000A000B000D000E000F003300340000
:100150000000000000001E00060019001100100041
:10016000260000000000000000D0D0D0D0D0D00188
:100170000102040810204142444848000000484859
:1001800050608182848890A0C1C2C4D0D0D0D0D029
:10019000D0C80000000000000000000000000000C7
:1001A00000000000000000001803640072006100FD
:1001B00067006F006E00770069006E0067007300D3
:1001C0000000100343006C003400720079007400DA
:1001D000790000000403090409027800040100A06A
:1001E000FA090400000103010100092111010001C5
:1001F00022400007058103080001090401000103F2
:10020000000000092111010001223B0007058203C3
:10021000200001080B020202020100090402000191
:100220000202010005240010010424020205240634
:100230000203070583030800FF09040300020A0004
:1002400000000705050210000507058402100005DF
:1002500012010002EF020108EDFE000000010102A0
:10026000000105010906A1018506050719E029E736
:10027000150025019508750181020507190029EF70
:100280001500250195F07501810205081901290560
:10029000950575019102950175039101C00501094C
:1002A00006A101050719E029E71500250195087544
:1002B0000181029501750881010507190029FF15C3
:1002C0000026FF009506750881000508190129051B
:1002D000950575019102950175039101C0001124E6
:1002E0001FBECFEFDAE0DEBFCDBF11E0A0E0B1E08E
:1002F000EAEAFFE302C005900D92A234B107D9F7F4
:1003000022E0A2E4B1E001C01D92A035B207E1F7FE
:100310000E94DD100C94D31F0C94000081E00E9419
:100320002711089581E0089581E008950E949401C5
:10033000089508950E9499010895A5E0B0E0E3EAC8
:10034000F1E00C945C1F49835A8330914501898107
:100350009A81311114C0662359F0222349F00E947A
:100360008C07182F682F89819A810E94680703C023
:100370000E947A07182F69817A81812F04C00E9418
:100380008C0769817A810E94530E2596E3E00C94D4
:10039000781FFC01262F4081518162817381848105
:1003A0000E949D01089581E00895CF93DF93EC01B1
:1003B00060E00E94C901BE010E949A01DF91CF91C5
:1003C00008950E94A60F08950E94A30F089508950E
:1003D0000E94B5050E94E7012FEF84E39CE02150C5
:1003E00080409040E1F700C0000008950E94E801BD
:1003F0000E94891608950E94E8010E949A160895A5
:100400000F931F93CF93DF938C0161E00E94C9018A
:10041000EC01B8010E949601882309F447C0B80195
:10042000CE010E943A11882309F440C0B801CE01E0
:100430000E941B148823D1F1B801CE010E94391209
:100440008823A1F1B801CE010E948113882371F1A4
:10045000F8018281882331F1CB358DE5D807E9F0A9
:1004600050F4C115FCE5DF0779F0CF3DDC45D1F450
:100470000E948E0C0CC0CD35EDE5DE0759F080F002
:10048000C83ADD4521F00EC00E94F6010FC00E945F
:10049000FB010CC00E94C50B05C00E94CF0B02C01F
:1004A0000E94D30BC8010E94920101C080E0DF913D
:1004B000CF911F910F9108950E94B2150E94790269
:1004C00008950E947D020E94BB15089508950E9420
:1004D0006602089581E008950E946A0208950895D1
:1004E000CF93C82F0E9467028C2F0E946C02CF917D
:1004F000089580E00E94700208950E9477140E947F
:10050000700208950E94771490914401891721F098
:10051000809344010E9470020895ABE0B0E0E3E9EB
:10052000F2E00C945D1F4F83588769877A878B8729
:1005300061110E940D0B9E012F5F3F4F86E0F90174
:1005400011928A95E9F785E0FE013796D90101906D
:100550000D928A95E1F789819A814C815D81452BC5
:1005600031F09F3F31F491E08F3F19F403C091E0E7
:1005700001C090E090FF09C049815A816B817C8164
:100580008D819E810E94390A05C0C9010E94D30154
:100590008111F2CF2B96E2E00C94791FFC0180814F
:1005A00091810E94C6070895CF93882369F1C82FCF
:1005B0008CEF8C0F813AD0F46C2F809100019091D8
:1005C00001010E94E014882349F06C2F8091000102
:1005D000909101010E946E150E94310B6C2F809149
:1005E0000001909101010E9460150CC080E28C0F07
:1005F000883050F4C77081E001C0880FCA95EAF7CF
:100600000E94F00A0E94310BCF910895882359F17E
:10061000682F8CEF860F813A38F480910001909119
:1006200001010E946E150CC080E2860F883058F4DC
:10063000677081E001C0880F6A95EAF70E94F60AA8
:100640000E94310B08958BE5860F833028F480E0FB
:1006500090E00E949E140895685A673120F480E06B
:1006600090E00E94B41408951F93CF93DF93182F46
:10067000EB010E94D402209741F08FE99FE001979F
:10068000F1F700C000002197F6CF812F0E940603EA
:10069000DF91CF911F910895893319F060E070E0E8
:1006A00002C060E570E00E9434030895882321F0C1
:1006B0000E94F00A0E94310B0895882321F00E94C5
:1006C000F60A0E94310B0895A0E0B0E0EAE6F3E0FC
:1006D0000C94571F7C01D62FC72FFC011281058176
:1006E00002950F700E94E60A8823B9F01123A9F041
:1006F0008C2F807F803421F080E28D0F883068F06D
:100700008091320282FF09C082E00E94930B0E9416
:10071000E60A91E0D82ED92601C0D12CCC2EC29465
:100720008FE0C8228C2D90E08C30910508F0A6C196
:10073000FC01EA5AFF4F0C94471F8C2F807FCF702B
:10074000882311F0C295C07F112399F0CC2309F4BE
:1007500081C180E28D0F883010F0D11104C08C2F40
:100760000E94F00A03C08C2F0E94000B0E94310BE4
:1007700071C18D2F0E940603CC2309F47FC180E252
:100780008D0F883038F1DD2329F18C2F0E94060B64
:1007900024C08C2F807FCF70803211F0C295C07F33
:1007A000DD2319F0D130A1F13DC08091320282FDEC
:1007B00017C0112349F0CC2329F08C2F0E94F00A96
:1007C0000E94310B80E047C180E00E940603CC23E9
:1007D00009F454C18C2F0E94F60A0E94310B4EC1BD
:1007E000112371F0002341F0013031F40E94100B0D
:1007F0008C2B0E941A0B42C10E94100B8C2B1DC027
:10080000002319F0013009F439C10E94270B25C0DB
:10081000112321F0063008F031C10EC0053008F078
:100820002DC11BC0112361F0002331F0F701858138
:1008300080FF10C18F7085838C2F0E9456031EC1CC
:10084000002359F0D93309F016C1FFEF07EE13E08A
:10085000F15000401040E1F70CC18C2F0E945D0365
:100860000DC18C2F837009F047C011110BC12D2FC2
:10087000229526952770220F220F6D2F6F70862FDD
:1008800090E0A0E0B0E0022E04C0880F991FAA1FDC
:10089000BB1F0A94D2F7D4FF10C04FE050E060E0D5
:1008A00070E004C0440F551F661F771F2A95D2F7CA
:1008B000409550956095709503C040E050E0BA01B6
:1008C000C695C695C3708A019B01082B192B2A2B4C
:1008D0003B2BC901B801C23049F058F4C13019F0BE
:1008E0000E941C06CFC00E940906CCC00E942F06A1
:1008F000C9C00E940606C6C0112319F08C2F817052
:1009000001C08695882309F4BDC02D2F2295269518
:100910002770220F220F6D2F6F70862F90E0A0E0BE
:10092000B0E0022E04C0880F991FAA1FBB1F0A94B3
:10093000D2F7D4FF10C04FE050E060E070E004C098
:10094000440F551F661F771F2A95D2F74095509583
:100950006095709503C040E050E0BA01C695C69519
:10096000C3708A019B01082B192B2A2B3B2BC90131
:10097000B801C23049F058F4C13019F00E94EB06BA
:1009800081C00E94D8067EC00E94FE067BC00E94E5
:10099000450678C0CF70112339F08C2F0E946E0667
:1009A0008D2F0E9456036EC08D2F0E945D038C2FE9
:1009B0000E94900667C0D23F21F128F4D03F41F059
:1009C000D13FC1F043C0D33F19F1D43F79F03EC0CD
:1009D000112341F0053008F051C08C2F8F710E9417
:1009E000B6064CC0063008F049C0F7CF80913202FD
:1009F00082FD18C0112339F08C2F8F710E946E0672
:100A00003DC01123C9F38C2F8F710E94900636C010
:100A1000112329F08C2F8F710E9458062FC00E943D
:100A200052062CC0112349F0CF718C2F0E946E0604
:100A300063E08C2F0E94750B21C081E00E94930B14
:100A40000230E0F082E00E94930B18C0112331F0D5
:100A5000002391F28D2F0E94D40210C0002399F23E
:100A6000D93349F41FEF27EE33E0115020403040D6
:100A7000E1F700C000008D2F0E94060388EF8C0D67
:100A8000843020F40E9477140E947002DD2089F0E7
:100A90000E94E20A80FD0DC0F70112820E94DC0A6A
:100AA0000E946E06C7010E9476050E94DC0A0E9421
:100AB0009006CDB7DEB7E8E00C94731F0F931F9339
:100AC000CF93DF93EC01688179818A810E94D107FD
:100AD0008C010E9411070E94F105B801CE010E940D
:100AE0006403DF91CF911F910F910895CF93DF930E
:100AF000EC01988189812B813C81232B31F08F3F40
:100B000031F481E09F3F19F403C081E001C080E02F
:100B100080FD1AC0CE010E94000281110FC00E9408
:100B2000E60A882389F08A81882371F08091320255
:100B300082FF0AC082E00E94930B06C0CE010E9491
:100B40005E05CE010E94D501DF91CF9108950E94EC
:100B50000D0B0E94310B08958091000190910101CD
:100B60000E947C150E94A70508950E94FD0A0E941C
:100B7000AC05089592959F70963079F010F49250DC
:100B800001C09A50923068F4803F69F018F4883EB2
:100B900040F409C0843F29F406C0883E20F0813F1C
:100BA00011F080E0089581E00895FC018081918139
:100BB0000E94C6070E94BA050895A5E0B0E0E3EEE2
:100BC000F5E00C945D1F2596E2E00C94791FA6E0F9
:100BD000B0E0EDEEF5E00C945D1F2696E2E00C949B
:100BE000791F089508950E94F20508950E94F30563
:100BF00008950E94F60560936301709364018093E9
:100C00006501909366010E94A70508950E94F90569
:100C100008950F931F930091630110916401209137
:100C2000650130916601602B712B822B932B0E9402
:100C3000F9051F910F9108950F931F930091630180
:100C40001091640120916501309166016023712348
:100C5000822393230E94F9051F910F9108950F930A
:100C60001F930091630110916401209165013091FF
:100C7000660160277127822793270E94F9051F913B
:100C80000F9108950E94F20508950E944206609314
:100C90005F017093600180936101909362010E94F3
:100CA000A705089560E070E0CB010E944506089515
:100CB0000F931F9341E050E060E070E08A019B01D8
:100CC00004C0000F111F221F331F8A95D2F7C901DC
:100CD000B8010E9445061F910F9108950F931F932D
:100CE00041E050E060E070E004C0440F551F661F13
:100CF000771F8A95D2F780915F0190916001A09152
:100D00006101B09162018A019B01082B192B2A2BEA
:100D10003B2BC901B8010E9445061F910F91089510
:100D20000F931F9341E050E060E070E004C0440F77
:100D3000551F661F771F8A95D2F74095509560958D
:100D4000709580915F0190916001A0916101B091D7
:100D500062018A019B01082319232A233B23C9012D
:100D6000B8010E9445061F910F9108950F931F939C
:100D700041E050E060E070E004C0440F551F661F82
:100D8000771F8A95D2F780915F0190916001A091C1
:100D90006101B09162018A019B01082719272A2766
:100DA0003B27C901B8010E9445061F910F91089584
:100DB0000F931F9300915F011091600120916101D9
:100DC00030916201602B712B822B932B0E94450680
:100DD0001F910F9108950F931F9300915F01109140
:100DE00060012091610130916201602371238223AF
:100DF00093230E9445061F910F9108950F931F930F
:100E000000915F01109160012091610130916201B8
:100E100060277127822793270E9445061F910F9113
:100E200008950895962F9770A1E001C0AA0F9A9592
:100E3000EAF793E0769567959A95E1F795E0969FA6
:100E40009001979F300D1124FA01E20FF31F40E04B
:100E500050E0682F70E090819B01042E02C036950F
:100E600027950A94E2F72170219529272A2329271B
:100E700021934F5F5F4F4530510569F70895FB019E
:100E8000782F777023E0969587952A95E1F745E0CE
:100E9000489F9001499F300D1124E20FF31F40E05D
:100EA00050E080E0219130E0072E02C03695279572
:100EB0000A94E2F721703327042E01C0220F0A940E
:100EC000EAF7822B4F5F5F4F4530510559F7089580
:100ED000282F933070F48C3060F4862F622F70E0EE
:100EE0002CE0929F600D711D112446E451E00E9498
:100EF00012070895933070F48C3060F4292F90E03D
:100F000066E471E03CE0239F800D911D11240E9456
:100F10003F07089580E00895A0E0B0E0E2E9F7E03F
:100F20000C94561F8C01C0905F01D0906001E0903E
:100F30006101F09062018091630190916401A09140
:100F40006501B0916601C82AD92AEA2AFB2ACFE1B5
:100F5000D0E0D701C6010C2E04C0B695A795979591
:100F600087950A94D2F780FD04C0219790F7B12CA1
:100F700007C0BC2EB8018C2F0E946C0E0197A9F3FC
:100F80008B2DCDB7DEB7E9E00C94721FCF93DF93C2
:100F9000EC010E948C07BE010E946C0EDF91CF9184
:100FA00008951F93CF93DF93EB019091450199230F
:100FB00021F0CB010E94C60713C0882349F0CB0162
:100FC0000E948C07182F682FCE010E94680704C06A
:100FD000CB010E947A07182FBE01812F0E946C0E50
:100FE000DF91CF911F9108951F93CF93DF93C0910D
:100FF000670116E080916801C81799F0D0E01C9F46
:10100000F0011D9FF00D1124E759FE4F40815181E1
:1010100062817381848195810E94E7052196C77062
:10102000E9CFDF91CF911F9108954091990150919F
:101030009A0160919B0170919C0180919D0190911A
:101040009E010E94E70508950F931F93CF93DF93AE
:1010500080919E0182958F7009F05AC080919B010A
:10106000882309F455C0809167011091680160914F
:10107000990170919A01C0919C01D0919D0191E0DC
:101080006F3F09F090E0292F06E0811709F440C076
:10109000209721F07F3F21F030E003C031E001C014
:1010A000322F90E030FD31C0089FF001099FF00D14
:1010B0001124DF01A759BE4F11963C9111973713A8
:1010C00024C03C91361321C012963C9112973111E5
:1010D0001CC013964D915C9114974C1B5D0B483CC2
:1010E000510598F480919E018F70806180939E01DC
:1010F000E259FE4F80818F708061808389E991E0A1
:101100000E9476050E94F40703C001968770BDCF48
:10111000DF91CF911F910F910895A1E1B0E0E3E934
:10112000F8E00C94541F8C0185E0F801DE011D9657
:1011300001900D928A95E1F7F801E2809091990172
:1011400060919A0120919C0130919D0121153105FA
:1011500031F06F3F31F481E09F3F19F403C081E02B
:1011600001C080E0F82FF1709F2E80FD40C1F80192
:1011700040815181A380B48089E9C82E81E0D82EB6
:10118000F0909B01F501E21BF30BFF2009F4DAC09C
:1011900080919E01E83CF10508F096C0282F207F41
:1011A00009F053C0561313C0491311C0FE2CE110AF
:1011B0000EC08F70806180939E010E941508C60149
:1011C0000E94760580919E01F80185834DC1A1148E
:1011D000B10431F05F3F31F481E04F3F19F403C0B7
:1011E00081E001C080E080FD03C081E08E2502C067
:1011F00080E090E0F82FF170FF2E80FF1CC08091FE
:1012000067012091680136E0821709F40BC190E074
:10121000389FF001399FF00D1124E759FE4F61818D
:10122000561306C06081461303C06281E61203C0F4
:1012300001968770E9CFFE2CEE2009F415C180914C
:101240009E01816080939E0154C0561306C04913CD
:1012500004C0E11002C0F80199C0C8010E94D50580
:10126000882361F1EE2051F120919E01822F829519
:101270008F7090E0029774F08091990190919A019B
:1012800098878F831986BB86AA862C87CE010796FE
:101290000E94760586E0F801A9E9B1E001900D927F
:1012A0008A95E1F70E9424080E9415080AC0561783
:1012B00011F1C8010E94D50581112CC0C8010E94FE
:1012C0007605FF24F394D0C0282F207F81F77A2D54
:1012D000B98AA88A6E2D89890E94DD0589E991E085
:1012E0000E94760586E0F60111928A95E9F70E9440
:1012F0001508F12CB9C04913DCCFE110DACFF801A1
:101300008583C8010E94760586E0F60111928A95D0
:10131000E9F7AAC0EE2091F220919E01822F8295DA
:101320008F7090E002970CF4B5CF80919901909165
:101330009A019A8389831B82BD82AC822E83CE015F
:101340000196A6CFE83CF10508F044C0FE2CEE2043
:1013500009F4B4CF561330C049132EC020919E011A
:1013600020FD21C0822F82958F70482F50E04115BB
:101370005105C9F0F80125834F30510541F08F5FC9
:10138000982F9295907F822F8F70892B8583C8012B
:101390000E94760586E0F801A9E9B1E001900D927E
:1013A0008A95E1F73CC086E0F801A9E9B1E0019037
:1013B0000D928A95E1F758C0C8010E94D5058111A8
:1013C00069CF80919E01816080939E01C8010E9437
:1013D00076054AC07A2DB98AA88A6E2D89890E941D
:1013E000DD0586E0F60111928A95E9F718C0EE2036
:1013F00009F464CFC8010E94D505F82E882309F4AA
:101400005DCF86E0F801A9E9B1E001900D928A95DF
:10141000E1F789E991E00E94CE020E9424080E942F
:10142000150822C04D875E878D859E850E94C60760
:10143000292F22952F70223028F49F7039F08111C6
:1014400005C00BC0243028F49F7049F4805E8830BA
:1014500020F0C8010E9476059F2CF92C05C0F801E8
:101460009581907F99F7F9CF8F2D6196EBE00C94E1
:10147000701FACE0B0E0EFE3FAE00C945C1F4F8328
:10148000588769877A878B879C87CE0107960E9449
:101490008D088823D1F09F8188852A853B85232B61
:1014A00031F08F3F31F481E09F3F19F403C081E0B8
:1014B00001C080E080FD47C04F81588569857A85ED
:1014C0008B859C850E94E7053EC086E0FE0137962D
:1014D000DE01119601900D928A95E1F7FF81E88572
:1014E0006A857B856115710531F0EF3F31F481E04C
:1014F000FF3F19F403C081E001C080E080FD23C0FC
:101500002091680130E0C9010196877099274091C8
:10151000670150E084179507F1F1F983EA837D8331
:101520006C8396E0929FD001939FB00D1124A75930
:10153000BE4FFE01319601900D929A95E1F780938E
:1015400068010E94F40716E080916701909168019C
:10155000891771F1189FC001112487599E4F0E946D
:101560008D08882329F1E09167011E9FF001112465
:10157000E759FE4F40815181628173818481958159
:101580000E94E7058091670190E001968770992796
:1015900080936701D9CF0E94B5051092680110921F
:1015A0006701E9E9F1E086E0DF011D928A95E9F73C
:1015B0002C96E3E00C94781F8091BF01859585956A
:1015C000859508958091BF01877008959091BF011E
:1015D000977081E009F480E008958091E201089518
:1015E0009091E201892B8093E2010895809590917A
:1015F000E20189238093E20108951092E2010895A7
:101600009091E101892B8093E1010895809590915B
:10161000E10189238093E10108951092E101089589
:101620008091C001089508950E94130B08950E94AF
:10163000140B08959091320292FF08C09091C0015E
:10164000981721F08093C0010E94170B0895809194
:10165000C001882329F01092C00180E00E94170B7E
:101660000895CF93DF93E0910001F0910101809103
:10167000E2018083E0910001F0910101908180916D
:10168000E101892B80838091C001882381F0E09162
:101690000001F09101019081892B808380910001EC
:1016A000909101010E94CA1481110E94270BC091E0
:1016B0000001D091010140E250E06FE971E0CE01FC
:1016C0000E94841F892B59F080E2FE01AFE9B1E04E
:1016D00001900D928A95E1F7CE010E948414DF916A
:1016E000CF9108950E94130B08959091320292FFBA
:1016F00011C098E0899F90011124262B2093BF01EF
:101700000E946E068091BF018595859585950E9402
:10171000720B08950E946E0608951092BF0180E03A
:101720000E94720B08952091BF01809582238093BF
:10173000BF01982F977099F430E0482F082E000CC5
:10174000550B2417350759F09091320292FF07C0CC
:101750008595859585950E9490060E948D0B08952C
:101760009091320292FB222720F9281769F080FB22
:1017700092F99093320280913102909132020E944C
:10178000040C82E00E94930B08958091320282FB48
:10179000882780F991E089270E94B00B089581E0A5
:1017A0000E94B00B089580E00E94B00B08956FEF87
:1017B0007FEF80E090E00E94BD1F089580E090E000
:1017C0000E94991F21E0883E9E4F09F020E0822F61
:1017D000089582E090E00E94911F089583E090E0D8
:1017E0000E94911F0895CF9384E090E00E94911F82
:1017F000C82F82E290E00E94911F2C2F30E0A901B7
:10180000582BCA01CF910895CF93C92F682F84E038
:1018100090E00E949F1F6C2F82E290E00E949F1F29
:10182000CF910895AB01BC018FE090E00E94B11F01
:101830000895AB01BC0183E190E00E94B11F0895BF
:1018400060E070E0CB010E94190C089560E070E048
:10185000CB010E94120C0E94200C089568EE7EEFCE
:1018600080E090E00E94BD1F60E082E090E00E9476
:101870009F1F60E083E090E00E949F1F1092630131
:1018800010926401109265011092660160E084E09C
:1018900090E00E949F1F64E082E290E00E949F1F00
:1018A00060E085E090E00E949F1F60E086E090E0AD
:1018B0000E949F1F6FEF87E090E00E949F1F40E013
:1018C00050E0BA0188E090E00E94B11F60E08DE036
:1018D00090E00E949F1F40E050E0BA0188E190E054
:1018E0000E94B11F60E087E190E00E949F1F40E0EE
:1018F00050E0BA018CE190E00E94B11F60E070E01E
:1019000080E290E00E94BD1F40E050E0BA0188E113
:1019100090E00E94B11F0E94260C08950E942E0C98
:101920000895682F8EE090E00E949F1F08950E9406
:1019300048166093ED017093EE018093EF01909350
:10194000F0016093E9017093EA018093EB019093B9
:10195000EC01089581E008950E94AA0C089508956D
:101960000E94AF0C08950E94AF0C08950E94B30C22
:1019700008950E94AF0C08950E94B90C08950E942A
:10198000AF0C089588E49FE00E946D140E94BF0C84
:101990000E94BC0C08950E94B00C0E94AF0C0895E8
:1019A0000E94670F0E946F0208950E9433160E94E2
:1019B00040100E94D00C0E941A11E1E3F2E08081F5
:1019C0008068808380913102909132020E94040CE1
:1019D0000E94FC170E94B60C0895AAE0B0E0E3EF65
:1019E000FCE00C94501F0E945610C82E81110E94DA
:1019F000970C33EE832E31E0932E00E010E0502E52
:101A0000802F0E948C0F5C01F401619071904F0156
:101A10006826792661147104B1F40F5F1F4F0330FB
:101A2000110569F78FEF89838A831B820E943C1618
:101A30008160782F9D838C8349815A816B818D8150
:101A40000E948D023BC08091F10181FD0E94950FA3
:101A5000D12CEE24E394F12CC3018E219F21892BFC
:101A600031F10E94AC0C8823B1F0DE825F82AE209F
:101A7000BF2081E0A114B10409F480E088870E94AE
:101A80003C168160782F9A8789874E815F816885AF
:101A90008A850E948D02000F111FF801ED51FE4F43
:101AA00080819181E826F926F182E08207C0D394F3
:101AB000EE0CFF1CFCE0DF12CFCFAFCF81E0C110F6
:101AC00001C080E02A96EFE00C946C1F0E94ED0CA0
:101AD0000E9482020895CF93DF930E94710EEC0161
:101AE000811523E59207A0F5811532E5930708F0EB
:101AF0009EC0811540E29407C0F4811551E095071E
:101B000008F0CDC0853A910550F48430910508F075
:101B1000C6C0019709F0C0C081E090E0C1C0805EFE
:101B20009109089708F4BBC0B7C0C11581E5D80773
:101B300008F077C0C11520E5D20708F051C0C115E3
:101B400030E4D30708F4A8C0DF70CE01906AA8C0C3
:101B5000811546E5940700F5811555E5950708F0D0
:101B600081C0C11584E5D80708F076C0CE01837026
:101B7000992721E030E002C0220F331F8A95E2F757
:101B80009C2F9695969540E2949FE0011124C22BDC
:101B9000D32BCE019A6884C081152AE5920780F480
:101BA000811539E5930708F066C0811548E594076B
:101BB00008F472C0D82FCC27CE01806F906A70C015
:101BC00090568115904208F067C08D2F8F710E944A
:101BD000050FDD27D0628F71AE01582BCA0160C09E
:101BE000CE0174E0969587957A95E1F7282F2370BA
:101BF0003C2F337081E090E002C0880F991F3A9526
:101C0000E2F79C68AC01522B9A019C2F9F7096952D
:101C1000969550E2959FE0011124C9018C2B9D2BD4
:101C20003FC0DC2FCC27CE01816F906A39C0837012
:101C3000992721E030E002C0220F331F8A95E2F796
:101C40009C2F9695969580E2989FE0011124C22BD7
:101C5000D32BCE019C6824C0DC2FCC27CE01846F0F
:101C6000906A1EC00E94050F8F7190E0D82FCC277C
:101C7000CE01906215C08F700E94050F94E0D6953A
:101C8000C7959A95E1F7CF70D0E0DC2FCC27D069CB
:101C90009E01282BC90104C080E090E001C0CE0164
:101CA000DF91CF9108957330A0F46C3090F494E2FA
:101CB000899FF00111248CE0789FE00DF11D112423
:101CC000E60FF11DEE0FFF1FE852FF4F8591949133
:101CD000089580E090E008950E94530E0E946B0DDD
:101CE00008958238910569F1B0F48133910509F4C2
:101CF0006DC048F48932910509F463C08A329105B8
:101D000009F469C008958533910509F455C08933F4
:101D10009105B9F00895833E910569F138F4803E4C
:101D20009105B1F0823E910509F10895863E910535
:101D3000A9F1873E9105B9F1843E910509F064C08F
:101D400023C02091310220FD4FC021FD4DC00895D8
:101D50008091310280FD44C08091320280FF44C0F6
:101D60008091310284FD42C083EE4DC080913102EA
:101D700082FF38C0F5CF8091310282FD33C080915F
:101D8000320280FD31C0ECCF8091320281FF32C03F
:101D90008091310284FD2AC087EE35C080913102E6
:101DA00083FF26C0F5CF8091310283FD21C0809151
:101DB000320281FD1FC0ECCF8091310285FD1CC035
:101DC0001DC08091310285FD19C016C0809131027D
:101DD00086FD16C017C08091310286FD13C010C069
:101DE00089E311C082EE0FC080EE0DC080E00BC011
:101DF00086EE09C084EE07C089E205C085E303C012
:101E00008AE201C081E390E008959091310292FF4F
:101E10000DC0282F2871283019F4877F846006C0F0
:101E2000282F2471243011F48B7F886093FF0DC01C
:101E3000282F2871283119F4877E846106C0282F45
:101E40002471243111F48B7E88612091320220FFAD
:101E50000DC0382F3871383019F4877F816006C083
:101E6000382F3171313011F48E7F886021FF0DC021
:101E7000282F2871283119F4877E816106C0282F08
:101E80002171213111F48E7E886194FD877E089541
:101E900080E008950E94D70B08950E9456102FEFFE
:101EA00086E791E0215080409040E1F700C00000BB
:101EB0000E94561080E00E948C0F80FF04C00E9498
:101EC0004A0F0E94891608950E944D0F08950E949E
:101ED000DE0B811102C00E948E0C0E94E90B8093E0
:101EE000F1010E94F30B90933202809331020E9421
:101EF000640F0E94EE0B682F70E080E090E00E947B
:101F0000060660915F01709160018091610190917E
:101F100062010E9442060895E82FF0E0EE0FFF1FD5
:101F2000E75CFD4F808191810895089580EA8A954C
:101F3000F1F7089500C008950E94960F089508953E
:101F40000E949F0F08950E94A00F08950E948E0185
:101F50000895F894E82FE295EF70F0E031A1282F72
:101F60002F7081E090E001C0880F2A95EAF7982F42
:101F70009095932391A392A1892B82A3789408959D
:101F8000CF93DF9384E30E94A90F82E30E94A90FFD
:101F900085E30E94A90FC2E3D1E089918F3F11F040
:101FA0000E94A90F81E0CE33D807B9F7DF91CF9116
:101FB0000895A0E0B0E0EFEDFFE00C94561F8C0117
:101FC000C62FD0E0CE01825C9E4F6C01FC01908157
:101FD0009F3F09F450C0B62EF894E92FE295EF70B8
:101FE000F0E081A19F7021E030E001C0220F9A95BE
:101FF000EAF7822B81A382A12095282322A378943B
:102000000E949A0FE2E3F1E04EE351E021E030E07C
:10201000E12CF12C61916F3F89F0A62FA295AF7052
:10202000B0E090968C9190E06F7002C09595879586
:102030006A95E2F780FD02C0C90102C080E090E02D
:10204000E82AF92A220F331F4E175F0719F7F60106
:1020500080818F3F11F00E94A90F61E0E114F1042B
:1020600009F460E08B2D0E949C0FCC0FDD1FC00F88
:10207000D11FF982E882CDB7DEB7E9E00C94721F78
:102080000E94C00F86E0E9E3F2E0DF01982F1D9285
:102090009A95E9F7E3E3F2E0DF011D928A95E9F70B
:1020A00083E00E9495100E94E1010895A6E0B0E04F
:1020B000ECE5F0E10C945A1F8E010F5F1F4F86E094
:1020C000F80111928A95E9F760E0C8010E94D90FE2
:1020D00061E0C8010E94D90F62E0C8010E94D90FD7
:1020E00046E050E0B80183E392E00E94841FFF24A1
:1020F000F394009709F4F12C892B41F086E0F80164
:10210000A3E3B2E001900D928A95E1F72F2D43E011
:1021100069E372E083E392E00E9496100E94E4017A
:102120008F2D2696E5E00C94761F0895FF920F936D
:102130001F93CF93DF93F82E092F162FD72FC42F7D
:10214000222349F081E08093F4010E943C16909391
:10215000F3018093F2018091F4018823D9F08091FA
:10216000F2019091F3010E945416059798F0EF2D1B
:10217000F02FA12FBD2F80E090E04C2F50E084176E
:10218000950734F4219131912D933D930196F7CF2A
:102190001092F401CDB7DEB7E5E00C94761F0E94F3
:1021A00072180E94D50C0E947F1808950E9484180E
:1021B0000E94660D0E949E1808950E94D3150E94E9
:1021C00058180E94C20C0E94CF100E94D6100E9484
:1021D000CB0CFBCF86E0EDEFF1E0DF01982F1D92F5
:1021E0009A95E9F7E7EFF1E0DF011D928A95E9F7AB
:1021F0000895A5E0B0E0EFEFF0E10C945D1F6B8374
:102200007C838D838C819D81892B31F05F3F31F4FC
:1022100081E04F3F19F403C081E001C080E080FD00
:1022200002C08B8102C080E090E081702596E2E0E0
:102230000C94791F0E94DE0B811102C00E948E0C4B
:102240008DE090E00E94911F8093F5010895CF9357
:10225000C82F0E94EA10C093F5016C2F8DE090E02A
:102260000E949F1FCF91089581E0089581E0089515
:1022700081E00895EF92FF920F931F93CF93DF9326
:102280007C01EB0180E3E8168AE5F80661F028F4AA
:10229000C7019A558A9778F1E5C0F1E3EF16FAE5A0
:1022A000FF06A1F0DFC080E39AE50E943811882381
:1022B00009F49CC0488159816A817B818C810E948C
:1022C000F910882309F492C080E012C081E39AE5F6
:1022D0000E943811882309F489C0488159816A8194
:1022E0007B818C810E94F910882309F47FC081E0F2
:1022F0000E9427117BC0C7010E943811882309F46E
:1023000075C01091F501112319F0113051F154C02D
:10231000488159816A817B818C810E94F910F70183
:10232000FF27E859FE4F9491A92FA295A695A6954F
:10233000A370B0E0882369F09D0123503E4FF9015E
:102340008081892B8083A950BE4F8C91E92FE82B87
:1023500006C0A350BE4FE92FE0958C91E823EC9383
:102360002BC0488159816A817B818C810E94F91040
:10237000482F8E2D67E00E943B1F292FE82FF0E0A9
:1023800086E090E0821B910921E030E001C0220F3D
:102390008A95EAF7DF01A350BE4F442349F08C91A0
:1023A000822B8C93E950FE4F8081282B208304C020
:1023B00020958C9128232C930091F60127EF31E092
:1023C000412FBE01C7010E943611882379F0488150
:1023D00059816A817B818C810E94F910C82F80917C
:1023E000F601CC2329F08F5F8093F601C0E03BC05B
:1023F00081501816CCF31092F60167EF71E08091CE
:10240000F5010E943411882351F18091F501882350
:1024100051F0813021F58091F70180688093F701B8
:1024200007EF11E013C007EF11E08BEFE82E81E01A
:10243000F82EF80181918F0181110E941C18E0167D
:10244000F106B9F780E00E941C1809C0F8018191DB
:102450008F010E941C18F1E00D3F1F07B9F70E9481
:10246000EA1001C0C1E08C2FCDB7DEB7E6E00C94D6
:10247000751FCF93DF93EC01FB018281882309F460
:102480003CC1C430FDE5DF0760F4CB3F9CE5D907D4
:1024900088F49E0122503C452431310508F02EC1BC
:1024A00009C0C236EDE5DE0729F0C63AFDE5DF07D3
:1024B00009F024C10E94F30B909332028093310201
:1024C000C1318CE5D80709F4C6C008F042C0C93054
:1024D000ECE5DE0709F49BC000F5C5308CE5D807B4
:1024E00009F485C078F4C330ECE5DE0709F478C060
:1024F00008F07AC0C230DC4509F0F5C080913102A5
:102500008160EFC0C7309CE5D90709F478C008F0B6
:102510007AC0809131028061E4C0CD30FCE5DF07F4
:1025200009F487C058F4CB309CE5D90709F479C089
:1025300008F07BC08091310288606FC0CF30FCE52D
:10254000DF0709F480C008F082C080913102877FE4
:10255000C8C0CE3F9CE5D90709F471C000F5C5316C
:10256000FCE5DF0709F485C068F4C3319CE5D907B1
:1025700009F475C008F095C00E94B505809131023C
:102580008F77AFC0CC3FFCE5DF07A9F108F054C05E
:10259000CB3FDC4509F0A7C08091320240C0C23079
:1025A000EDE5DE0709F489C058F4C1158DE5D807BB
:1025B00009F45AC008F069C08091320282602FC0CD
:1025C000C236EDE5DE0709F47CC0C63AFDE5DF075B
:1025D00009F481C0C330DD4509F085C080E06EC0DC
:1025E0008091310282607DC08091310216C080915D
:1025F0003102886076C08091320282604FC0809143
:10260000310280626EC08091310280646AC00E9493
:10261000B50580913102806864C0846062C08160C9
:102620003DC0809131028E7F5CC0809131028D7FF0
:1026300058C08091310216C08091320218C080913A
:1026400032028D7F2BC0809131028F7E4AC08091F3
:1026500031028F7D46C0809131028F7B42C08091D4
:102660003102877F8B7F3DC0809132028D7F8E7FCC
:1026700015C08091310282FB222720F991E0922738
:1026800090FB82F990FB83F92CC080913202982F45
:10269000909591708E7F892B90FB81F98093320207
:1026A00022C00E94B5058091310287FB222720F9C4
:1026B00091E0922790FB87F914C081E00E94910C71
:1026C00012C08091310284FB222720F991E09227E9
:1026D00090FB84F906C080913102982F909590FB71
:1026E00080F98093310280913102909132020E94F0
:1026F000040C0E94B50580E001C081E0DF91CF911C
:102700000895CF93DF9386319C4541F5EB010E94FC
:10271000ED0A982F8A8120910001309101018823D0
:1027200079F09A7A81E009F480E0809303029111B4
:1027300002C069E201C065E3C9010E9460150AC0D8
:1027400080910302811102C069E201C065E3C90101
:102750000E946E150E94310B80E001C081E0DF9184
:10276000CF9108950F931F93CF93DF93C42FD22F50
:10277000FC0182818823B1F0409306020E943C163E
:10278000909305028093040280E28C0F883008F059
:102790004DC0C77081E001C0880FCA95EAF70E945A
:1027A000560344C080910602481330C08091040251
:1027B000909105020E945416883C910538F510E26C
:1027C0001D0FCD17B9F080E28C0F883040F4C77030
:1027D00081E001C0880FCA95EAF70E945D031830B6
:1027E00010F581E09D2F977001C0880F9A95EAF748
:1027F0000E945603802F0E944C031830B8F4D77003
:1028000081E001C0880FDA95EAF70AC080E28C0FF8
:10281000883060F4C77081E001C0880FCA95EAF77C
:102820000E945D0303C0802F0E944C03DF91CF9173
:102830001F910F9108950F939C01CB01243F4CE50C
:10284000340731F188F4293DFCE53F07D9F02A3DF2
:102850004CE5340779F1283D3C45A9F506E221EE27
:1028600041EE68ED7CE52BC0263FFCE53F07E1F03B
:10287000A8F0273F3C4539F507E225EE46EE67EF25
:102880007CE51DC007E225EE45EE69ED7CE517C04D
:1028900006E221EE40EE64EF7CE511C007E225EE92
:1028A00044EE65EF7CE50BC006E221EE42EE66EFFA
:1028B0007CE505C008E221E045EE6AED7CE50E947A
:1028C000B21380E008C0FC018281882319F01092C5
:1028D000060201C081E00F91089590934301809317
:1028E0004201089590930C0280930B020895E091A9
:1028F0000B02F0910C02309729F00190F081E02D4D
:102900000995089580E00895FC01A0910B02B09113
:102910000C02109791F080912901882341F0809159
:10292000310287FF04C08081818386E08083CF01EC
:102930001296ED91FC911397099508952091090243
:1029400030910A022817390771F090930A02809398
:102950000902E0910B02F0910C02309721F0068001
:10296000F781E02D09950895209107023091080222
:102970002817390771F09093080280930702E091BD
:102980000B02F0910C02309721F00084F185E02DCC
:1029900009950895FC01329680912901882331F030
:1029A0008091310287FF02C09EE101C096E080E085
:1029B000915028F021912223D9F38F5FF9CF089508
:1029C000662351F1209129012223E9F0209131025F
:1029D00027FF19C0462F4695469546954E31E0F49F
:1029E000677021E030E002C0220F331F6A95E2F7E2
:1029F000FC01E40FF11D828190E02823392381E05E
:102A0000232B69F409C0FC013296089621916217C4
:102A100029F0E817F907D1F780E0089581E00895DB
:102A20009C01FC0132969FEF80E04191461789F0AE
:102A30009F3F19F4411101C0982F8F5F8630A9F78D
:102A40009F3F39F0F901E90FF11D97FDFA95628377
:102A5000089508959C012A5F3F4FFC01428146136F
:102A600001C01282019682179307B9F70895262FA5
:102A70002695269526952E3168F4FC01E20FF11D6E
:102A8000677021E030E001C0220F6A95EAF7828189
:102A9000282B22830895262F2695269526952E31BC
:102AA00070F4FC01E20FF11D677021E030E001C01D
:102AB000220F6A95EAF720958281282322830895C0
:102AC00020912901222339F02091310227FF03C0F0
:102AD0000E94371508950E9410150895209129012C
:102AE000222339F02091310227FF03C00E944B15A9
:102AF00008950E942A15089520912901FC0132961B
:102B0000222331F08091310287FF02C08EE101C0A3
:102B100086E0DF011D928A95E9F7089508950E94E5
:102B20008E15089583E080930D020E948F150895FD
:102B3000811102C081E001C082E080930D020E94F9
:102B40008F1508950E949815089581E080930D02D5
:102B50000E948F1508950E94A515089508950E945A
:102B6000AE1508950E94AF1508950E94AE15089500
:102B70000E94AE1508950E94AE150895CF930E944D
:102B8000B8150E9456100E94B515C0E08C2F0E9407
:102B90008C0F892B29F4CF5FC330C1F780E001C0CF
:102BA00081E0CF91089585B7806885BF85B780683B
:102BB00085BF08951F920F920FB60F9211248F9325
:102BC0009F93AF93BF9380910E02811113C08091A8
:102BD0003F0290914002A0914102B0914202419681
:102BE000A11DB11D80933F0290934002A09341022A
:102BF000B0934202BF91AF919F918F910F900FBE02
:102C00000F901F90189580914702843031F10E94F7
:102C10005C0210920E0220E488E190E00FB6F89476
:102C2000A895809360000FBE2093600083B7817FDA
:102C3000846083BF83B7816083BF7894889583B7AE
:102C40008E7F83BF0FB6F894A8958091600088614D
:102C500080936000109260000FBE08950E94B50539
:102C60000E946102089582E084BD93E095BD9AEFD1
:102C700097BD80936E0008952FB7F89480913F021E
:102C800090914002A0914102B09142022FBF08955D
:102C90002FB7F89460913F027091400280914102F9
:102CA000909142022FBF08959C014FB7F8948091F4
:102CB0003F0290914002A0914102B09142024FBF69
:102CC000821B930B089578941F920F920FB60F9268
:102CD00011248F939F93AF93BF9380913F02909164
:102CE0004002A0914102B09142020196A11DB11D86
:102CF00080933F0290934002A0934102B09342021E
:102D0000BF91AF919F918F910F900FBE0F901F9029
:102D1000189587E797E790930108809300089AE059
:102D200088E10FB6F894A895809360000FBE909349
:102D30006000FFCF9AE088E10FB6F894A8958093E1
:102D400060000FBE90936000FFCF80912F02089526
:102D500008950895CF93DF9320912901222339F01C
:102D60002091310227FF03C060E222E002C068E048
:102D700021E02093E9002FEF3091E800215035FD4C
:102D800006C035ED3A95F1F700002111F5CF2091FD
:102D9000E80025FF1DC0EC0180912901811105C0CB
:102DA00040E050E068E070E003C070E040E050E0D8
:102DB000CE010E9417198091E8008E778093E80079
:102DC00080E2FE01AFE0B2E001900D928A95E1F75A
:102DD000DF91CF9108950895089580914602811161
:102DE00009C00E94A21A0E94FF1A8091E20084602A
:102DF0008093E20008951092460208950E94AB1558
:102E000008956091430281E0611101C080E00E9459
:102E1000921508959091470281E0943009F080E086
:102E2000609143020E949815089542E061EC81E0B0
:102E30000E941B1A42E261EC82E00E941B1A42E0EF
:102E400061EC83E00E941B1A42E160E885E00E9489
:102E50001B1A42E161E884E00E941B1A909147022C
:102E600081E0943009F080E0609143020E94A21555
:102E7000089580914902833009F461C030F48130B3
:102E800071F0823009F49BC0B2C08A3009F487C067
:102E90008B3009F46CC0893009F0A9C020C0809142
:102EA0004802813A09F0A3C08091E800877F8093AF
:102EB000E80080914C0290914D02892B21F460E250
:102EC0008FE092E003C060E080E090E070E00E945C
:102ED0005C198091E8008B778093E80088C080912E
:102EE0004802813209F083C080914C0290914D02DA
:102EF000029708F07CC08091E800877F8093E8000B
:102F00008091E80082FD05C0809147028111F8CFD1
:102F100072C02091F3008091F20090E0922B029712
:102F200031F48091F100813011F0863021F48091EC
:102F3000F10080932F028091E8008B7754C080913C
:102F40004802813A09F053C080914C0290914D02A1
:102F5000892B09F04CC08091E800877F8093E800BE
:102F60008091E80080FFFCCF8091290137C08091DB
:102F700048028132E1F580914C0290914D02892BFB
:102F8000B1F58091E800877F8093E8000E94501A95
:102F900080914A02809329010E94B50528C0809142
:102FA0004802813221F58091E800877F8093E80014
:102FB0000E94501A80914B028093300218C0809179
:102FC0004802813AA1F48091E800877F8093E8006D
:102FD0008091E80080FFFCCF809130028093F10067
:102FE0008091E8008E778093E8000E94501A82E07A
:102FF00091E00E94891E089582E090E0909315016F
:103000008093140182E091E00E944D1E089508957E
:10301000CF93DF9382E091E00E94EB1DEC012097BB
:1030200041F082E091E00E94181E0E94071821974B
:10303000F6CFDF91CF910895CF93C091E900209111
:10304000EC00922F917020FD90E82091120120FF5A
:103050002DC0CF70C92B909103019F709093E90010
:103060009091EB0090FF1FC09091EE0097FF1BC066
:103070009FEF2091E800915025FD06C025ED2A958F
:10308000F1F700009111F5CF8093F10082E091E01B
:103090000E94A51D8091E80080FF05C08091E80096
:1030A0008E778093E800CF70C093E900CF910895A8
:1030B00084B7877F84BF0FB6F894A895809160008D
:1030C000886180936000109260000FBE90E080E8FD
:1030D0000FB6F89480936100909361000FBE0E9438
:1030E000A51508950E94A21A0E94FF1AE2EEF0E0D0
:1030F00080818460808378940E948A1D08958DE188
:1031000091E00E9472140895809147028530A9F4DD
:1031100080914702853079F40E9403168091450220
:103120008823B1F30E94BE15882391F30E940119F0
:103130000E94B505EDCF0E942E1608950E94081832
:1031400082E091E00E94D41D08950E94A81808957D
:10315000292F332723303105C9F060F421303105A0
:1031600081F02230310509F044C088E790E028ED75
:1031700031E043C021323105E1F02232310549F11D
:1031800038C082E190E020E532E037C099278130F5
:10319000910549F028F0029761F5E8EAF1E005C0F1
:1031A000E4EDF1E002C0E2ECF1E0849190E09F01F7
:1031B00024C06115710541F061307105D1F489E0D9
:1031C00090E023E032E019C089E090E02AEE31E09F
:1031D00014C06115710541F06130710551F48BE344
:1031E00090E022E632E009C080E490E02DE932E090
:1031F00004C080E090E020E030E0FA0131832083D9
:10320000089580E189BD82E189BD09B400FEFDCF4A
:103210008091D8008F7D8093D8008091E0008260FB
:103220008093E0008091E00081FDFCCF0895A0E054
:10323000B0E0EDE1F9E10C94571FEC018B017A014C
:103240000E946F1A811133C0E114F10439F0F701C3
:1032500080819181081B190BC80FD91FC12CD12C5B
:103260000115110519F18091E80085FD16C08091C6
:10327000E8008E778093E800E114F10449F0F7014B
:1032800080819181C80ED91ED182C08285E00FC095
:103290000E946F1A882321F30AC089918093F1005C
:1032A00001501109FFEFCF1ADF0ADACF80E0CDB766
:1032B000DEB7E8E00C94731F20914E0230914F026C
:1032C0002617370748F06115710539F42091E80099
:1032D0002E772093E80001C0B901FC0120E06115C0
:1032E000710579F1809147028823F1F18530F1F180
:1032F0008091E80083FD3CC08091E80082FD2EC0F3
:103300008091E80080FFEBCF2091F3008091F200E4
:1033100090E0922B6115710551F08830910538F4D9
:1033200021912093F100615071090196F3CF21E0C2
:10333000089709F020E08091E8008E778093E800FC
:10334000CECF2111CFCF0AC080914702882361F0F0
:10335000853061F08091E80083FD0AC08091E8002B
:1033600082FFF2CF80E0089582E0089583E008951F
:1033700081E0089520914E0230914F0226173707C1
:1033800048F06115710539F42091E8002E772093FB
:10339000E80001C0B901FC0120E06115710591F15F
:1033A00080914702882309F440C0853009F43FC06A
:1033B0008091E80083FD3DC08091E80082FD2FC030
:1033C0008091E80080FFE9CF2091F3008091F20026
:1033D00090E0922B6115710559F08830910540F409
:1033E00024912093F1003196615071090196F2CF3A
:1033F00021E0089709F020E08091E8008E77809323
:10340000E800CBCF2111CCCF0AC08091470288239E
:1034100061F0853061F08091E80083FD0AC0809101
:10342000E80082FFF2CF80E0089582E0089583E013
:10343000089581E00895982F973068F59093E900FA
:10344000981739F07091EC002091ED005091F00048
:1034500003C0242F762F50E021FD02C09F5FECCFE8
:103460003091EB003E7F3093EB003091ED003D7FDB
:103470003093ED003091EB0031603093EB007093AE
:10348000EC002093ED005093F0002091EE0027FD1A
:10349000E5CF80E008958F708093E90081E0089582
:1034A0008091480287FF11C08091E80082FD05C02D
:1034B000809147028111F8CF11C08091E8008B778D
:1034C0000BC080914702882349F08091E80080FF7B
:1034D000F8CF8091E8008E778093E80008952091DE
:1034E000E4003091E50095E64091EC00842F817076
:1034F00040FF23C08091E80080FD1DC080914702FD
:10350000882399F0853099F08091EB0085FD11C0FA
:103510004091E4005091E5002417350729F39150BC
:1035200011F09A01E1CF84E0089582E0089583E0EC
:10353000089581E0089580E008954091E80042FFF9
:10354000DDCF08950E94111B0E94191BE0EEF0E0F0
:10355000808181608083E8EDF0E080818F778083D7
:1035600019BCA7EDB0E08C918E7F8C9380818F7E0B
:1035700080831092460208950F931F93CF93DF9399
:103580000E94111B0E94191BC8EDD0E088818F7723
:10359000888388818068888388818F7D888319BC2F
:1035A0001092470210924302109245021092440278
:1035B00000EE10E0F80180818B7F8083888181603C
:1035C000888342E060E080E00E941B1AE1EEF0E0B8
:1035D00080818E7F8083E2EEF0E080818160808355
:1035E000808188608083F80180818E7F80838881DC
:1035F00080618883DF91CF911F910F910895E8ED4D
:10360000F0E080818F7E8083E7EDF0E08081816053
:10361000808384E082BF81E0809346020E94BC1ACE
:103620000895E8EDF0E080818E7F80831092E200C3
:1036300008951092DA001092E10008951F920F92FF
:103640000FB60F9211242F933F934F935F936F9375
:103650007F938F939F93AF93BF93EF93FF9380914B
:10366000E10082FF0BC08091E20082FF07C08091E1
:10367000E1008B7F8093E1000E94891D8091DA0038
:1036800080FF1FC08091D80080FF1BC08091DA00AE
:103690008E7F8093DA008091D90080FF0DC080E199
:1036A00089BD82E189BD09B400FEFDCF81E0809330
:1036B00047020E94ED1605C019BC109247020E94F5
:1036C000FB168091E10080FF19C08091E20080FF2D
:1036D00015C08091E2008E7F8093E2008091E2002D
:1036E00080618093E2008091D80080628093D8004E
:1036F00019BC85E0809347020E9401178091E10088
:1037000084FF30C08091E20084FF2CC080E189BD3D
:1037100082E189BD09B400FEFDCF8091D8008F7D84
:103720008093D8008091E1008F7E8093E1008091AA
:10373000E2008F7E8093E2008091E20081608093BE
:10374000E20080914302882311F084E007C0809159
:10375000E30087FD02C081E001C083E0809347025F
:103760000E940A178091E10083FF29C08091E20046
:1037700083FF25C08091E100877F8093E10082E094
:1037800080934702109243028091E1008E7F8093E4
:10379000E1008091E2008E7F8093E2008091E20060
:1037A00080618093E20042E060E080E00E941B1AAA
:1037B0008091F00088608093F0000E94FE16FF91D7
:1037C000EF91BF91AF919F918F917F916F915F9199
:1037D0004F913F912F910F900FBE0F901F90189512
:1037E0001F920F920FB60F9211242F933F934F9376
:1037F0005F936F937F938F939F93AF93BF93CF9379
:10380000DF93EF93FF93C091E900CF708091EC00BC
:10381000D82FD17080FDD0E81092E9008091F0009F
:10382000877F8093F00078940E94341C1092E90006
:103830008091F00088608093F000CD2BCF70C09312
:10384000E900FF91EF91DF91CF91BF91AF919F91EF
:103850008F917F916F915F914F913F912F910F9039
:103860000FBE0F901F901895AAE2B0E0EAE3FCE1CA
:103870000C945C1FE8E4F2E08091F100819322E077
:10388000E035F207C9F70E9439178091E80083FFFD
:103890002EC18091480290914902492F50E04A3050
:1038A000510508F024C1FA01EE59FF4F0C94471F4F
:1038B000803821F0823809F01AC108C08091440292
:1038C00090914502992389F082600FC080914C024B
:1038D0008F70873008F00BC18093E9008091EB0076
:1038E00085FB882780F91092E9009091E800977F86
:1038F0009093E8008093F1001092F100D1C0282F3E
:103900002D7F09F0F4C0882319F0823061F0EFC0F8
:1039100080914A02813009F0EAC0933009F080E0DA
:10392000809345022EC080914A0281112AC0809165
:103930004C028F702FEF280F263008F0D8C08093EC
:10394000E9002091EB0020FF1CC0933021F480910E
:10395000EB00806214C09091EB0090619093EB00BB
:1039600021E030E0A90102C0440F551F8A95E2F71B
:103970004093EA001092EA008091EB008860809307
:10398000EB001092E9008091E800877F8093E800C7
:103990000E94501AACC08111AAC010914A021F7730
:1039A0008091E3008078812B8093E3008091E80090
:1039B000877F8093E8000E94501A8091E80080FF82
:1039C000FCCF8091E30080688093E300111102C076
:1039D00082E001C083E08093470289C08058823032
:1039E00008F085C080914A0290914B028C3D53E0D3
:1039F000950779F583E08A838AE289834FB7F89443
:103A0000DE01139620E03EE051E2E32FF0E0509318
:103A10005700E49120FF03C0E295EF703F5FEF7025
:103A20008E2F90E0EA3010F0C79601C0C0968D93BB
:103A30009D932F5F243149F74FBF8091E800877F26
:103A40008093E8006AE270E0CE0101960E945C1962
:103A500016C060914C0270914D02AE014F5F5F4FF6
:103A60000E94A518BC01892B09F441C09091E8007F
:103A7000977F9093E80089819A810E94BA1980917A
:103A8000E8008B778093E80032C0803881F5809120
:103A9000E800877F8093E800809143028093F100E3
:103AA0008091E8008E7772CF811121C080914A0207
:103AB00090914B0299270297D4F48091E800877F78
:103AC0008093E80080914A02809343020E94501A3A
:103AD00080914302811106C08091E30087FD02C0FE
:103AE00081E001C084E0809347020E941517809115
:103AF000E80083FF0AC08091E800877F8093E80098
:103B00008091EB0080628093EB00AA96E3E00C9436
:103B1000781F0895CF93809147028823A1F0C09128
:103B2000E900CF709091EC00892F817090FD80E8C2
:103B3000C82B1092E9008091E80083FD0E94341C9C
:103B4000CF70C093E900CF910895209147022430AF
:103B500049F5FC014489558966897789452B462BAF
:103B6000472B01F181818F708093E9002091F30050
:103B70008091F20090E0922B892B91F09091E800D7
:103B80008091E8008E778093E80095FD09C00E943F
:103B90006F1A811108C08091E8008E778093E80049
:103BA00080E0089582E0089520914702243091F446
:103BB000FC014489558966897789452B462B472B1B
:103BC00049F021812F702093E9002091E80020FD29
:103BD0000E94A51D089520914702243019F080E02D
:103BE00090E00895FC014489558966897789452BC1
:103BF000462B472BA1F386818F708093E90080913B
:103C0000E80082FFECCF2091F3008091F20090E079
:103C1000922B009731F42091E8002B772093E80055
:103C200008952091F3008091F20090E0922B089586
:103C300020914702243019F08FEF9FEF0895FC0187
:103C40004489558966897789452B462B472BA1F3F3
:103C500086818F708093E9008091E80082FFECCF2D
:103C60002091F3008091F20090E0922B892B21F0BB
:103C70002091F10030E002C02FEF3FEF4091F300C0
:103C80008091F20090E0942B892B29F48091E80038
:103C90008B778093E800C9010895A8E0B0E0E3E5E0
:103CA000FEE10C945B1F20914702243061F5FC017A
:103CB0004489558966897789452B462B472B19F10D
:103CC0008C0183858F708093E90088E0EAE2F1E05F
:103CD000DE01119601900D928A95E1F740E050E0E7
:103CE00068E070E0CE0101960E94171940E050E0B4
:103CF00062E070E0C80142960E9417198091E800C6
:103D00008E778093E8002896E4E00C94771F08955E
:103D10000895CF93DF932091E80023FFA9C0FC0111
:103D2000208130E040914C0250914D0242175307E0
:103D300009F09EC0EC0180914902813259F018F4DB
:103D40008032F1F195C0823209F46DC0833209F4FA
:103D50007FC08EC080914802813A09F089C080916D
:103D6000E800877F8093E8008091E80080FFFCCF27
:103D70008C899D89AE89BF898093F100492F5A2F84
:103D80006B2F77274093F100AD016627772740938B
:103D9000F1008B2F9927AA27BB278093F100888DEC
:103DA0008093F100898D8093F1008A8D8093F100DA
:103DB0008091E8008E778093E8000E94501A58C0E6
:103DC00080914802813209F053C08091E800877FDA
:103DD0008093E8008091E80082FD05C08091470251
:103DE0008111F8CF45C03091F1002091F100909100
:103DF000F1008091F1003C8B2D8B9E8B8F8B8091FD
:103E0000F100888F8091F100898F8091F1008A8F75
:103E10008091E8008B778093E8000E94501ACE01D1
:103E20000E94871E25C080914802813209F5809149
:103E3000E800877F8093E8000E94501A80914A0230
:103E400090914B02998B888BCE010E94871E10C0E7
:103E500080914802813261F48091E800877F8093ED
:103E6000E8000E94501A60914A02CE010E94881E0A
:103E7000DF91CF910895991B79E004C0991F96179F
:103E800008F0961B881F7A95C9F780950895EE0F64
:103E9000FF1F0590F491E02D09942F923F924F92CD
:103EA0005F926F927F928F929F92AF92BF92CF92CA
:103EB000DF92EF92FF920F931F93CF93DF93CDB7D3
:103EC000DEB7CA1BDB0B0FB6F894DEBF0FBECDBF4B
:103ED00009942A88398848885F846E847D848C841C
:103EE0009B84AA84B984C884DF80EE80FD800C8125
:103EF0001B81AA81B981CE0FD11D0FB6F894DEBF08
:103F00000FBECDBFED010895FB01DC0104C08D9112
:103F10000190801921F441505040C8F7881B990B3B
:103F20000895F999FECF92BD81BDF89A992780B581
:103F30000895A8E1B0E042E050E00C94C51F262FA0
:103F4000F999FECF92BD81BDF89A019700B402168F
:103F500039F01FBA20BD0FB6F894FA9AF99A0FBE3D
:103F600008950396272F0E94A01F0E949F1F252FB0
:103F70000E94A01F242F0C94A01F0196272F0E949F
:103F8000A01F0C949F1FDC01CB01FC01F999FECF0F
:103F900006C0F2BDE1BDF89A319600B40D924150D1
:0A3FA0005040B8F70895F894FFCFE1
:103FAA00C10102841000000105100000018308000D
:103FBA0000010000000000000000000000A516AA91
:103FCA0016EB16EC16A816A91601A120000000008F
:103FDA000200F4F5F6F73133C697669490913432BD
:023FEA003500A0
:00000001FF
