:100000000C9481010C94C8010C94C8010C94C80193
:100010000C94C8010C94C8010C94C8010C94C8013C
:100020000C94C8010C94C8010C94571C0C94291D05
:100030000C9454170C94C8010C94C8010C94C8017A
:100040000C94C8010C94C8010C94C8010C94C8010C
:100050000C94C8010C94AD170C94C8010C94C80101
:100060000C94C8010C94C8010C94C8010C94C801EC
:100070000C94C8010C94C8010C94C8010C94C801DC
:100080000C94C8010C94C8010C94C8010C94C801CC
:100090000C94C8010C94C8010C94C8010C94C801BC
:1000A0000C94C8010C94C8010C94C801C203C2038B
:1000B000EE03EE0370057005700570055604EB0441
:1000C000FC04FC0460057005700569050806080657
:1000D0001A061A0611061A061A061A06080608064D
:1000E00016061A061A061606961DBD1DB51EBD1D5E
:1000F000B51E091E2C1EB51E831E921E0000075A37
:10010000095A0B5A0D5A115A165A1A5A1C5A1E5A83
:10011000205A225A0153085A0A5A0C5A0E5A125A95
:10012000175A1B5A1D5A1F5A215A295A00000000FB
:100130000000015A0F5A105A185A195A025A000050
:10014000000000002A0014001A0008001500170023
:100150001C0018000C00120013002F0001530400B3
:100160001600070009000A000B000D000E000F002A
:10017000330034000000000000001E0006001900DB
:1001800011001000260000000000000000D0D0D0B8
:10019000D0D0D00101020408102041424448480058
:1001A0000000484850608182848890A0C1C2C4D0B9
:1001B000D0D0D0D0D0C80000000000000000000067
:1001C00000000000000000000000000018036400B0
:1001D0007200610067006F006E00770069006E00BA
:1001E000670073000000100343006C0034007200CD
:1001F0007900740079000000040309040902780002
:10020000040100A0FA090400000103010100092112
:10021000110100012240000705810308000A0904BA
:1002200001000103000000092111010001223B002F
:100230000705820320000A080B02020202010009DE
:10024000040200010202010005240010010424023E
:10025000020524060203070583030800FF090403BF
:1002600000020A00000007050502100005070584CA
:100270000210000512010002EF020108EDFE00006D
:1002800001000102000105010906A101850605071B
:1002900019E029E715002501950875018102050778
:1002A000190029EF1500250195F075018102050857
:1002B00019012905950575019102950175039101B3
:1002C000C005010906A101050719E029E715002568
:1002D00001950875018102950175088101050719CD
:1002E0000029FF150026FF00950675088100050806
:1002F0001901290595057501910295017503910173
:10030000C00011241FBECFEFDAE0DEBFCDBF04B6C0
:1003100003FE27C080913A0290913B02A0913C02DB
:10032000B0913D028730904BA740B04BD1F4109272
:100330003A0210923B0210923C0210923D0214BE0F
:1003400084B7877F84BF0FB6F894A895809160002A
:10035000886180936000109260000FBEE0E0F8E3D7
:10036000099511E0A0E0B1E0E8EEF1E402C00590EB
:100370000D92A434B107D9F722E0A4E4B1E001C0A2
:100380001D92AA33B207E1F70E9401120C94F220E9
:100390000C94000081E00C94411281E0089581E00A
:1003A00008950C94CF0108950C94D3011F93CF931B
:1003B000DF9300D000D01F92CDB7DEB749835A83B8
:1003C0006B833091460189819A81311114C0662373
:1003D00059F0222349F00E94AC07182F682F898119
:1003E0009A810E94550703C00E948007182F6981D7
:1003F0007A81812F04C00E94AC0769817A810F90B5
:100400000F900F900F900F90DF91CF911F910C9450
:100410006D0EFC01262F40815181628173818481A0
:100420000C94D60181E00895CF93DF93EC0160E056
:100430000E940902BE01DF91CF910C94D4010E9469
:100440007E100E94A4020C94B9100C94B71080E0A6
:100450000C94A50208950C942A020E94F6050E94AD
:100460002B022FEF84E39CE0215080409040E1F785
:1004700000C000000C94D3170F931F93CF93DF930A
:100480008C0161E00E940902EC01B8010E94D101D7
:10049000882309F444C0B801CE010E94A312882326
:1004A000F1F1B801CE010E9486158823C1F1B8018F
:1004B000CE010E94B013882391F1B801CE010E94B1
:1004C000E214882361F1F8018281882309F1CB3598
:1004D0008DE5D807C1F050F4C115FCE5DF0781F0C8
:1004E000CF3DDC45A9F40E94600D19C0CC35EDE587
:1004F000DE0761F0CD35DD4559F40E94A30C08C03C
:100500000E942D020CC00E94AC0C02C00E94AF0CD5
:10051000C801DF91CF911F910F910C94CD0180E024
:10052000DF91CF911F910F9108950C942A020E94A0
:10053000E2150E94A5020C94950208950C949D0268
:1005400081E008950C94A0020895CF93C82F0E94D3
:100550009E028C2F0E94A202CF910895CF93DF9329
:10056000CDB7DEB72B970FB6F894DEBF0FBECDBF69
:100570004F83588769877A878B8761110E94EF0BB9
:100580009E012F5F3F4F86E0F90111928A95E9F7AE
:1005900085E0FE013796D90101900D928A95E1F729
:1005A00089819A814C815D81452B31F09F3F31F4E7
:1005B00091E08F3F19F403C091E001C090E090FFFB
:1005C00009C049815A816B817C818D819E810E9405
:1005D000100B05C0C9010E9412028111F2CF2B96A7
:1005E0000FB6F894DEBF0FBECDBFDF91CF91089557
:1005F000FC01808191810E94EE070895CF938823AA
:1006000071F1C82F8CEF8C0F813AD0F46C2F809150
:100610000201909103010E944A16882349F06C2F31
:1006200080910201909103010E94D5160E94210C35
:100630006C2F80910201909103010E94CA160CC098
:1006400080E28C0F883058F4C77081E001C0880FB9
:10065000CA95EAF70E94D20BCF910C94210CCF914E
:100660000895882349F1682F8CEF860F813A38F47A
:1006700080910201909103010E94D5160CC080E286
:10068000860F883050F4677081E001C0880F6A954A
:10069000EAF70E94D80B0C94210C8BE5860F83306F
:1006A00020F480E090E00C940816685A673120F43A
:1006B00080E090E00C941E1608951F93CF93DF9373
:1006C000182FEB010E94FE02209741F08FE99FE076
:1006D0000197F1F700C000002197F6CF812FDF913D
:1006E000CF911F910C943103893319F060E070E0D1
:1006F00002C060E570E00C945D03882321F00E9445
:10070000D20B0C94210C0895882321F00E94D80B61
:100710000C94210C0895CF92DF92EF92FF920F93E9
:100720001F93CF93DF937C01D62FC72FFC0112813B
:10073000058102950F700E94C80B8823B9F0112320
:10074000A9F08C2F807F803421F080E28D0F8830DB
:1007500068F080911C0282FD09C082E00E94710C49
:100760000E94C80B91E0D82ED92601C0D12CCC2EE6
:10077000C2948FE0C8228C2D90E0FC01EA5AFF4F12
:100780000C949D208C2F807FCF70882311F0C29510
:10079000C07F112399F0CC2309F47DC180E28D0F35
:1007A000883010F0D11104C08C2F0E94D20B03C0EE
:1007B0008C2F0E94E20B0E94210C6DC18D2F0E9494
:1007C0003103CC2309F48CC180E28D0F883038F1DD
:1007D000DD2329F18C2F0E94E80B24C08C2F807F11
:1007E000CF70803211F0C295C07FDD2319F0D13077
:1007F000A1F13DC080911C0282FF17C0112349F076
:10080000CC2329F08C2F0E94D20B0E94210C80E077
:1008100043C180E00E943103CC2309F461C18C2FD5
:100820000E94D80B0E94210C5BC1112371F00023A0
:1008300041F0013031F40E94020C8C2B0E940A0C12
:100840004FC10E94020C8C2B1DC0002319F00130F7
:1008500009F446C10E94170C25C0112321F006306F
:1008600008F03EC10EC0053008F03AC11BC011238C
:1008700061F0002331F0F701858180FF0CC18F709A
:1008800085838C2F0E947D032BC1002359F0D9331F
:1008900009F012C1FFEF27EE83E0F15020408040C5
:1008A000E1F708C18C2F0E9484031AC18C2F83703A
:1008B00009F045C0111118C14D2F4295469547705A
:1008C000440F440F6D2F6F70862F90E0A0E0B0E0D2
:1008D000042E04C0880F991FAA1FBB1F0A94D2F7C9
:1008E000D4FF10C00FE010E020E030E004C0000FA3
:1008F000111F221F331F4A95D2F70095109520959E
:10090000309503C000E010E09801C695C695C3700D
:10091000BC01CD01602B712B822B932BC23049F08F
:1009200058F4C13019F00E946B06DEC00E945906CF
:10093000DBC00E947D06D8C00E945706D5C0112397
:1009400019F08C2F817001C08695882309F4CCC0E2
:100950004D2F429546954770440F440F6D2F6F7091
:10096000862F90E0A0E0B0E0042E04C0880F991F0D
:10097000AA1FBB1F0A94D2F7D4FF10C00FE010E0EB
:1009800020E030E004C0000F111F221F331F4A95E2
:10099000D2F7009510952095309503C000E010E047
:1009A0009801C695C695C370BC01CD01602B712B13
:1009B000822B932BC23049F058F4C13019F00E94B9
:1009C000300792C00E941E078FC00E9442078CC051
:1009D0000E94910689C0CF70112339F08C2F0E949C
:1009E000B7068D2F0E947D037FC08D2F0E94840348
:1009F0008C2F0E94D80678C0D23F21F128F4D03F36
:100A000041F0D13FC1F043C0D33F19F1D43F79F059
:100A10003EC0112341F0053008F062C08C2F8F7169
:100A20000E94FD065DC0063008F05AC0F7CF8091E5
:100A30001C0282FF18C0112339F08C2F8F710E9485
:100A4000B7064EC01123C9F38C2F8F710E94D806B0
:100A500047C0112329F08C2F8F710E94A20640C03D
:100A60000E949D063DC0112349F0CF718C2F0E943A
:100A7000B70663E08C2F0E94560C32C081E00E94C2
:100A8000710C023068F182E00E94710C29C01123C0
:100A900031F0002391F28D2F0E94FE0221C000232D
:100AA00099F2D93349F49FEFE7EEF3E09150E0403B
:100AB000F040E1F700C000008D2F0E94310310C00C
:100AC0004C2F4F706D2FC7010E94690E0E941C08A9
:100AD0000FC04C2F4F706D2FC7010E946C0E08C0C5
:100AE00088EF8C0D843020F40E94E2150E94A5024C
:100AF000DD20C9F00E94C40B80FD15C0F7011282F1
:100B00000E94BE0B0E94B706C7010E94B4050E9456
:100B1000BE0BDF91CF911F910F91FF90EF90DF906F
:100B2000CF900C94D806DF91CF911F910F91FF9039
:100B3000EF90DF90CF9008950F931F93CF93DF93A3
:100B4000EC01688179818A810E94F9078C010E94F9
:100B500054070E944506B801CE010E948B03DF9125
:100B6000CF911F910F910895CF93DF93EC0198815E
:100B700089812B813C81232B31F08F3F31F481E03F
:100B80009F3F19F403C081E001C080E080FD1DC0DB
:100B9000CE010E943C02811110C00E94C80B882324
:100BA000A1F08A81882389F080911C0282FD0DC00A
:100BB00082E0DF91CF910C94710CCE010E949C05D4
:100BC000CE01DF91CF910C941402DF91CF91089563
:100BD0000E94EF0B0E94FF0B0C94210C80910201EC
:100BE000909103010E94E0160C94E8050E94DF0B2F
:100BF0000C94EE05E92FE295EF704E2F50E0FA01CC
:100C00003297EE30F105B0F4EA59FF4F0C949D2075
:100C1000803F91F018F4883E68F40EC0843F51F490
:100C20000BC0883E48F0813F29F406C093FB88271B
:100C300080F9089580E0089581E00895FC018081A5
:100C400091810E94EE070E94FA050895CF93DF93E9
:100C500000D000D01F92CDB7DEB70F900F900F904D
:100C60000F900F90DF91CF910895CF93DF9300D035
:100C700000D000D0CDB7DEB726960FB6F894DEBF11
:100C80000FBECDBFDF91CF910895089508950C94C4
:100C900046060C9447060E944906609364017093CF
:100CA000650180936601909367010C94E8050C94AC
:100CB0004B060F931F9300916401109165012091E1
:100CC000660130916701602B712B822B932B1F9152
:100CD0000F910C944B060F931F9300916401109198
:100CE00065012091660130916701602371238223A1
:100CF00093231F910F910C944B060F931F93009118
:100D000064011091650120916601309167016027AF
:100D10007127822793271F910F910C944B060C94F7
:100D200046060E948F066093600170936101809374
:100D30006201909363010C94E80560E070E0CB01E0
:100D40000C9491060F931F9341E050E060E070E037
:100D50008A019B0104C0000F111F221F331F8A95B7
:100D6000D2F7C901B8011F910F910C9491060F930E
:100D70001F9341E050E060E070E004C0440F551F55
:100D8000661F771F8A95D2F780916001909161016B
:100D9000A0916201B09163018A019B01082B192B7C
:100DA0002A2B3B2BC901B8011F910F910C9491067E
:100DB0000F931F9341E050E060E070E004C0440FE7
:100DC000551F661F771F8A95D2F7409550956095FD
:100DD00070958091600190916101A0916201B09144
:100DE00063018A019B01082319232A233B23C9019C
:100DF000B8011F910F910C9491060F931F9341E03E
:100E000050E060E070E004C0440F551F661F771F7C
:100E10008A95D2F78091600190916101A091620161
:100E2000B09163018A019B01082719272A273B27D4
:100E3000C901B8011F910F910C9491060F931F9354
:100E40000091600110916101209162013091630174
:100E5000602B712B822B932B1F910F910C94910679
:100E60000F931F9300916001109161012091620125
:100E70003091630160237123822393231F910F918B
:100E80000C9491060F931F930091600110916101E2
:100E90002091620130916301602771278227932797
:100EA0001F910F910C94910608952CE0929F800D54
:100EB0001124E82FE695E695E695877051E001C08C
:100EC000550F8A95EAF785E0E89FF0011124E95B68
:100ED000FE4F20E030E070E04081CB01022E02C0E6
:100EE000969587950A94E2F78170819584278523EA
:100EF000842781932F5F3F4F2530310569F708958F
:100F00002CE0929F800D1124682F6695669566955A
:100F1000982F977085E0689FB001112440E050E061
:100F200080E0FB01E40FF51FE95BFE4F208130E01C
:100F3000092E02C0369527950A94E2F721703327CF
:100F4000042E01C0220F0A94EAF7822B4F5F5F4FF5
:100F50004530510531F70895BF92CF92DF92EF925D
:100F6000FF920F931F93CF93DF938C01C09060018A
:100F7000D0906101E0906201F09063018091640182
:100F800090916501A0916601B0916701C82AD92AA4
:100F9000EA2AFB2ACFE1D0E0D701C6010C2E04C01B
:100FA000B695A795979587950A94D2F780FD04C0CA
:100FB000219790F7B12C07C0BC2EB8018C2F0E944E
:100FC000850F0197A9F38B2DDF91CF911F910F9181
:100FD000FF90EF90DF90CF90BF900895CF93DF9375
:100FE000EC010E94AC07BE010E94850FDF91CF91FA
:100FF00008951F93CF93DF93EB01909146019923BE
:1010000021F0CB010E94EE0713C0882349F0CB01E9
:101010000E94AC07182F682FCE010E94550704C00C
:10102000CB010E948007182FBE01812F0E94850FDF
:10103000DF91CF911F910895EF92FF920F931F932D
:10104000CF93DF938C01892B09F46CC0F12CEE2433
:10105000E394E8012196F8018491843740F48430C8
:1010600008F051C0813081F0823019F15BC08537C2
:1010700009F444C0A8F19CE7980F903708F052C0DB
:101080008F770E94310341C00E5F1F4FFE01849194
:1010900090E2980F983050F48770FE2D01C0FF0F3A
:1010A0008A95EAF78F2F0E94F20B14C00E94FE026D
:1010B0002DC00E5F1F4FFE01849190E2980F983073
:1010C00060F48770FE2D01C0FF0F8A95EAF78F2F1D
:1010D0000E94F80B0E94210C19C00E94310316C017
:1010E0000E5F1F4FFE01C491CC2381F08FE99FE07A
:1010F0000197F1F700C00000C150F6CF0E5F1F4FFF
:10110000FE01F49003C00E94FE028E018F2D882301
:1011100009F49FCFEFE9FFE03197F1F700C000003D
:101120008150F5CFDF91CF911F910F91FF90EF90FC
:1011300008951F93CF93DF93C091680116E08091CB
:101140006901C81799F0D0E01C9FF0011D9FF00DB8
:101150001124E659FE4F408151816281738184815F
:1011600095810E9435062196C770E9CFDF91CF9116
:101170001F91089540919A0150919B0160919C01AB
:1011800070919D0180919E0190919F010C94350674
:10119000EF92FF920F931F93CF93DF9380919F0164
:1011A00082958F7009F065C080919C01882309F4B5
:1011B00060C080916801F090690110919A010091DE
:1011C0009B0160919D0170919E0191E01F3F09F08C
:1011D00090E0C0910001D0910101292F96E0E92E05
:1011E0008F1509F446C06115710521F00F3F21F0FC
:1011F00030E003C031E001C0322F90E030FD36C056
:10120000E89EF001E99EF00D1124DF01A659BE4FC2
:1012100011963C911197301329C03C91311326C08F
:1012200012963C911297311121C013964D915C9109
:101230001497461B570B4C175D07C0F480919F0114
:101240008F70806180939F01E159FE4F80818F7084
:10125000806180838AE991E00E94B405DF91CF919B
:101260001F910F91FF90EF900C9499080196877051
:10127000B7CFDF91CF911F910F91FF90EF9008951D
:101280009F92AF92BF92CF92DF92EF92FF920F9315
:101290001F93CF93DF93CDB7DEB761970FB6F89466
:1012A000DEBF0FBECDBF8C0185E0F801DE011D96CB
:1012B00001900D928A95E1F7D8011296EC909091E9
:1012C0009A01E0919B0120919D0130919E01211591
:1012D000310531F0EF3F31F481E09F3F19F403C055
:1012E00081E001C080E0B82FB1709B2E80FD47C126
:1012F000D8014C9111965C9111971396AD90BC90CA
:1013000014978AE9C82E81E0D82EF0909C01B5018F
:10131000621B730B2091000130910101FF2009F441
:10132000D9C080919F016217730708F095C0282FDC
:10133000207F09F052C05E1313C0491311C0FE2C68
:10134000E1100EC08F70806180939F010E94BA08E7
:10135000C6010E94B40580919F01F80185834DC1AB
:10136000AB2831F05F3F31F481E04F3F19F403C007
:1013700081E001C080E080FD03C081E08E2502C0D5
:1013800080E090E0F82FF170FF2E80FF1CC080916C
:1013900068012091690136E0821709F40BC190E0E1
:1013A000389FF001399FF00D1124E659FE4F6181FD
:1013B000561306C06081461303C06281E61203C063
:1013C00001968770E9CFFE2CEE2009F416C18091BA
:1013D0009F01816080939F0154C05E1306C0491332
:1013E00004C0E11002C0F80199C0C8010E941E06A5
:1013F000882361F1EE2051F120919F01822F829587
:101400008F7090E0029774F080919A0190919B0107
:1014100098878F831986BB86AA862C87CE0107966C
:101420000E94B40586E0F801AAE9B1E001900D92AE
:101430008A95E1F70E94C8080E94BA080AC05E17A0
:1014400011F1C8010E941E0681112CC0C8010E9422
:10145000B405FF24F394D1C0282F207F81F77A2D83
:10146000B98AA88A6E2D89890E9426068AE991E0A8
:101470000E94B40586E0D6011D928A95E9F70E9484
:10148000BA08F12CBAC04913DCCFE110DACFF80169
:101490008583C8010E94B40586E0D6011D928A9515
:1014A000E9F7ABC0EE2091F220919F01822F829547
:1014B0008F7090E002970CF4B5CF80919A019091D3
:1014C0009B019A8389831B82BD82AC822E83CE01CD
:1014D0000196A6CF6217730708F044C0FE2CEE20D9
:1014E00009F4B4CF5E1330C049132EC020919F0180
:1014F00020FD21C0822F82958F70482F50E041152A
:101500005105C9F0F80125834F30510541F08F5F37
:10151000982F9295907F822F8F70892B8583C80199
:101520000E94B40586E0F801AAE9B1E001900D92AD
:101530008A95E1F73CC086E0F801AAE9B1E00190A4
:101540000D928A95E1F759C0C8010E941E068111CB
:1015500069CF80919F01816080939F01C8010E94A3
:10156000B4054BC07A2DB98AA88A6E2D89890E944C
:10157000260686E0D6011D928A95E9F718C0EE206E
:1015800009F464CFC8010E941E06F82E882309F4CE
:101590005DCF86E0F801AAE9B1E001900D928A954D
:1015A000E1F78AE991E00E94F8020E94C8080E94CF
:1015B000BA0823C04D875E878D859E850E94EE0701
:1015C000292F22952F70223028F49F7039F0811135
:1015D00005C00BC0243028F49F7049F4805E883029
:1015E00020F0C8010E94B4059F2CF92C06C0D80138
:1015F00015969C91907F91F7F8CF8F2D61960FB63D
:10160000F894DEBF0FBECDBFDF91CF911F910F9138
:10161000FF90EF90DF90CF90BF90AF909F90089594
:101620001F93CF93DF93CDB7DEB72C970FB6F89407
:10163000DEBF0FBECDBF4F83588769877A878B8700
:101640009C87CE0107960E9440098823D1F09F8194
:1016500088852A853B85232B31F08F3F31F481E04B
:101660009F3F19F403C081E001C080E080FD47C0C6
:101670004F81588569857A858B859C850E943506C2
:101680003EC086E0FE013796DE01119601900D9274
:101690008A95E1F7FF81E8856A857B85611571058B
:1016A00031F0EF3F31F481E0FF3F19F403C081E0F6
:1016B00001C080E080FD23C02091690130E0C901B4
:1016C0000196877099274091680150E0841795072B
:1016D000F1F1F983EA837D836C8396E0929FD001D8
:1016E000939FB00D1124A659BE4FFE013196019073
:1016F0000D929A95E1F7809369010E94990816E08E
:101700008091680190916901891771F1189FC0015A
:10171000112486599E4F0E944009882329F1E091A7
:1017200068011E9FF0011124E659FE4F408151814E
:1017300062817381848195810E9435068091680160
:1017400090E001968770992780936801D9CF0E9415
:10175000F6051092690110926801EAE9F1E086E06D
:10176000DF011D928A95E9F72C960FB6F894DEBF3B
:101770000FBECDBFDF91CF911F9108958091A00141
:1017800085958595859508958091A0018770089528
:101790009091A001977081E009F480E00895809114
:1017A000C40108959091C401892B8093C4010895C8
:1017B00080959091C40189238093C401089510926B
:1017C000C40108959091C301892B8093C3010895AA
:1017D00080959091C30189238093C301089510924D
:1017E000C30108959091C201892B8093C20108958D
:1017F00080959091C20189238093C201089510922F
:10180000C20108958091A101089508950C94050CDA
:101810000C94060C90911C0292FD08C09091A101BD
:10182000981721F08093A1010C94080C08958091E1
:10183000A101882329F01092A10180E00C94080CEA
:101840000895E0910201F09103018091C401808329
:10185000E0910201F091030190818091C301892BF5
:101860008083E0910201F091030190818091C20197
:10187000892B80838091A101882381F0E09102016E
:10188000F09103019081892B8083809102019091D6
:1018900003010E94341681110E94170C80910201ED
:1018A000909103010C94EE150C94050C90911C0280
:1018B00092FD10C098E0899F90011124262B20935F
:1018C000A0010E94B7068091A00185958595859518
:1018D0000C94540C0C94B7061092A00180E00C9468
:1018E000540C2091A001809582238093A001982F11
:1018F000977099F430E0482F082E000C550B2417F0
:10190000350759F090911C0292FD07C08595859589
:1019100085950E94D8060C946C0C089590911C0239
:1019200092FB222720F9281769F080FB92F9909307
:101930001C0280911B0290911C020E94DC0C82E030
:101940000C94710C089580911C0282FB882780F909
:1019500091E089270C948E0C81E00C948E0C80E031
:101960000C948E0C6FEF7FEF80E090E00C94DC2005
:1019700080E090E00E94B82021E0893E9E4F09F06F
:1019800020E0822F089582E090E00C94B02083E064
:1019900090E00C94B020CF9384E090E00E94B020BF
:1019A000C82F82E290E00E94B0202C2F30E0A901E5
:1019B000582BCA01CF910895CF93C92F682F84E087
:1019C00090E00E94BE206C2F82E290E0CF910C94B8
:1019D000BE20AB01BC018FE090E00C94D020AB01A5
:1019E000BC0183E190E00C94D02060E070E0CB017A
:1019F0000C94EF0C60E070E0CB010E94E90C0C94B9
:101A0000F50C69EE7EEF80E090E00E94DC2060E063
:101A100082E090E00E94BE2060E083E090E00E94BF
:101A2000BE2010926401109265011092660110921E
:101A3000670160E084E090E00E94BE2060E082E206
:101A400090E00E94BE2060E085E090E00E94BE2011
:101A500060E086E090E00E94BE206FEF87E090E0BB
:101A60000E94BE2040E050E0BA0188E090E00E9471
:101A7000D02060E08DE090E00E94BE2040E050E089
:101A8000BA0188E190E00E94D02060E087E190E018
:101A90000E94BE2040E050E0BA018CE190E00E943C
:101AA000D02060E070E080E290E00E94DC2040E026
:101AB00050E0BA0188E190E00E94D0200C94FA0C2A
:101AC0000C94010D682F8EE090E00C94BE200E94D3
:101AD00092176093D0017093D1018093D2019093BB
:101AE000D3016093CC017093CD018093CE0190938C
:101AF000CF01089585B7806885BF85B7806885BFA9
:101B0000089581E008950C94810D08950C94850D3D
:101B10000C94850D0C94880D0C94850D0C948C0DF3
:101B20000C94850D0E947A0D81E690E10E94D815F3
:101B30000E94900D0C948E0D0E94860D0C94850DC4
:101B40000E947D170E945A110E943412EBE1F2E0CC
:101B500080818068808380911B0290911C020E948A
:101B6000DC0C0E9436190C948A0D6F927F928F9232
:101B70009F92AF92BF92CF92DF92EF92FF920F931C
:101B80001F93CF93DF93CDB7DEB72A970FB6F894A4
:101B9000DEBF0FBECDBF0E946F1181110E94670D85
:101BA00036EC832E31E0932E00E010E0C02E802F23
:101BB0000E94A2105C01F401619071904F016826AF
:101BC000792661147104B1F40F5F1F4F03301105C2
:101BD00069F78FEF89838A831B820E948617816051
:101BE000782F9D838C8349815A816B818D810E94DE
:101BF000AE023AC08091D40181FD0E94AB10D12C7D
:101C0000EE24E394F12CC3018E219F21892B29F12D
:101C10000E94830D8823A9F0DE82CF82AE20BF20F0
:101C200081E0AB2809F480E088870E9486178160F4
:101C3000782F9A8789874E815F8168858A850E947F
:101C4000AE02000F111FF801EA53FE4F808191810F
:101C5000E826F926F182E08207C0D394EE0CFF1C3F
:101C6000FCE0DF12D0CFB0CF0E94E2159091C50109
:101C70008917D1F00E94E2158093C5012A960FB60C
:101C8000F894DEBF0FBECDBFDF91CF911F910F91B2
:101C9000FF90EF90DF90CF90BF90AF909F908F908C
:101CA0007F906F900C94A5022A960FB6F894DEBF31
:101CB0000FBECDBFDF91CF911F910F91FF90EF909D
:101CC000DF90CF90BF90AF909F908F907F906F905C
:101CD000089580E090E00895089524E2829FC00175
:101CE0001124FC012CE0729FE00DF11D1124E60F80
:101CF000F11DEE0FFF1FE450FF4F85919491089561
:101D0000880F991FFC01E457FE4F85919491089527
:101D1000CF93DF930E948A0FEC01811521E5920792
:101D200098F5811540E5940708F085C0811550E2CB
:101D30009507F0F4C11581E0D80708F0E2C0C03E75
:101D4000D10588F4C03CD10508F065C0C130D1058B
:101D500009F45EC008F4D2C0CE010497813A91051F
:101D600008F4CFC0CBC0C83ED10508F4CAC0C6C075
:101D7000811520E4920708F05BC0811540E39407C9
:101D800008F04FC09F704AC0811555E59507A0F433
:101D9000C11584E5D80708F095C0C11523E5D20721
:101DA00008F07BC0C11542E5D40708F061C09C2F44
:101DB0008827816F906AA6C0811559E5950798F428
:101DC000C11588E5D80708F082C0C11526E5D207FD
:101DD00008F094C08C2F0E941E108F7190E0982FF5
:101DE000882790628FC081154AE5940708F474C073
:101DF00090568115904208F081C08D2F8F710E94FE
:101E00001E109E01332730628F71A901582B74C0B8
:101E100081E090E077C0CE01805C91090E94800E45
:101E200071C09927D3FF02C0986C6CC0906C6AC0D7
:101E30009F70906A67C0F4E096958795FA95E1F7F0
:101E4000282F23703C2F337081E090E002C0880F70
:101E5000991F3A95E2F79C68922B2C2F2F702695AC
:101E6000269540E2249F90011124822B932B4AC097
:101E70009E012370332781E090E002C0880F991FF4
:101E80002A95E2F72C2F2695269550E2259F900162
:101E90001124822B932B9C6835C09E01237033271D
:101EA00081E090E002C0880F991F2A95E2F72C2F5D
:101EB0002695269540E2249F90011124822B932B96
:101EC0009A6820C09C2F8827846F906A1BC09C2F23
:101ED0008827806F906A16C08F700E941E109E0126
:101EE00094E0369527959A95E1F72F7030E0322FE0
:101EF00022273069A901482BCA0104C080E090E084
:101F000001C0CE01DF91CF9108950E946D0E0E9415
:101F1000880E08958238910569F1B0F481339105F6
:101F200009F46DC048F48932910509F463C08A321E
:101F3000910509F469C008958533910509F455C0E8
:101F400089339105B9F00895833E910569F138F41C
:101F5000803E9105B1F0823E910509F10895863EDB
:101F60009105A9F1873E9105B9F1843E910509F0EB
:101F700064C023C020911B0220FD4FC021FD4DC035
:101F8000089580911B0280FD44C080911C0280FF57
:101F900044C080911B0284FD42C083EE4DC08091FD
:101FA0001B0282FF38C0F5CF80911B0282FD33C037
:101FB00080911C0280FD31C0ECCF80911C0281FF1A
:101FC00032C080911B0284FD2AC087EE35C080910B
:101FD0001B0283FF26C0F5CF80911B0283FD21C029
:101FE00080911C0281FD1FC0ECCF80911B0285FDFA
:101FF0001CC01DC080911B0285FD19C016C08091B8
:102000001B0286FD16C017C080911B0286FD13C0FF
:1020100010C089E311C082EE0FC080EE0DC080E0D9
:102020000BC086EE09C084EE07C089E205C085E3D7
:1020300003C08AE201C081E390E0089590911B0201
:1020400092FF0DC0282F2871283019F4877F8460F3
:1020500006C0282F2471243011F48B7F886093FFF1
:102060000DC0282F2871283119F4877E846106C09D
:10207000282F2471243111F48B7E886120911C0259
:1020800020FF0DC0382F3871383019F4877F8160F8
:1020900006C0382F3171313011F48E7F886021FFF6
:1020A0000DC0282F2871283119F4877E816106C060
:1020B000282F2171213111F48E7E886194FD877E55
:1020C000089580E008950C94B20C0E946F112FEFD8
:1020D00086E791E0215080409040E1F700C0000089
:1020E0000E946F1180E00E94A21080FF04C00E9435
:1020F00063100C94D31708950C9465100E94B80CCB
:10210000811102C00E94600D0E94C30C8093D40113
:102110000E94CB0C90931C0280931B020E947C10A7
:102120000E94C70C682F70E080E090E00E94570684
:1021300060916001709161018091620190916301F1
:102140000C948F06E82FF0E0EE0FFF1FED5DFD4FC2
:10215000808191810895089580EA8A95F1F7089524
:1021600000C008950C94AC1008950C94B4100C9415
:10217000B5100C94CA01F894E82FE295EF70F0E0E6
:1021800031A1282F2F7081E090E001C0880F2A959F
:10219000EAF7982F9095932391A392A1892B82A37C
:1021A00078940895CF93DF9384E30E94BB1082E379
:1021B0000E94BB1085E30E94BB10C4E3D1E089916B
:1021C0008F3F11F00E94BB1081E0C034D807B9F7EF
:1021D000DF91CF910895BF92CF92DF92EF92FF925D
:1021E0000F931F93CF93DF938C01C62FD0E0CE01C6
:1021F000805C9E4F6C01FC0190819F3F09F450C0B0
:10220000B62EF894E92FE295EF70F0E081A19F706F
:1022100021E030E001C0220F9A95EAF7822B81A3DA
:1022200082A12095282322A378940E94B010E4E391
:10223000F1E040E451E021E030E0E12CF12C61914B
:102240006F3F89F0A62FA295AF70B0E090968C9169
:1022500090E06F7002C0959587956A95E2F780FDD2
:1022600002C0C90102C080E090E0E82AF92A220FEA
:10227000331F4E175F0719F7F60180818F3F11F06A
:102280000E94BB1061E0E114F10409F460E08B2DC1
:102290000E94B210CC0FDD1FC00FD11FF982E8825F
:1022A000DF91CF911F910F91FF90EF90DF90CF9032
:1022B000BF9008950E94D21086E0E3E2F2E0DF01D1
:1022C000982F1D929A95E9F7EDE1F2E0DF011D925A
:1022D0008A95E9F783E00E94BA110C941F02FF92DD
:1022E0000F931F93CF93DF9300D000D000D0CDB7D2
:1022F000DEB78E010F5F1F4F86E0F80111928A95BD
:10230000E9F760E0C8010E94EB1061E0C8010E949B
:10231000EB1062E0C8010E94EB1046E050E0B8010B
:102320008DE192E00E94A320FF24F394009709F42A
:10233000F12C892B41F086E0F801ADE1B2E001908B
:102340000D928A95E1F72F2D43E063E272E08DE173
:1023500092E00E94BB110E9425028F2D26960FB697
:10236000F894DEBF0FBECDBFDF91CF911F910F91CB
:10237000FF9008950895FF920F931F93CF93DF93DB
:10238000F82E092F162FD72FC42F222349F081E0D2
:102390008093D7010E9486179093D6018093D50130
:1023A0008091D7018823D9F08091D5019091D601F1
:1023B0000E949E17059798F0EF2DF02FA12FBD2FAB
:1023C00080E090E04C2F50E08417950734F4219181
:1023D00031912D933D930196F7CF1092D701DF9164
:1023E000CF911F910F91FF9008950E94AA190E940A
:1023F000A00D0C94B6190E94BA190E94B50D0C9448
:10240000D4190E940C170E9491190E94920D0E94EB
:10241000F5110E94FB110E949C0DFBCFCF93DF931F
:1024200000D000D01F92CDB7DEB76B837C838D8345
:102430008C819D81892B31F05F3F31F481E04F3FEA
:1024400019F403C081E001C080E080FD02C08B81EF
:1024500002C080E090E081700F900F900F900F907D
:102460000F90DF91CF9108950E94B80C811102C0A6
:102470000E94600D8DE090E00E94B0208093D80112
:10248000089596E0E7EEF1E0DF01292F1D922A95ED
:10249000E9F7E1EEF1E0DF01292F1D922A95E9F736
:1024A000EBEDF1E0DF011D929A95E9F78093D801F9
:1024B000682F8DE090E00C94BE2081E00895CF93CA
:1024C000DF9361EE71E08091D8010E945D12882354
:1024D00019F18091D801882351F08130E9F480917D
:1024E000E10180688093E101C1EED1E00EC0C1EE50
:1024F000D1E0899181110E94551981E0C53ED8072C
:10250000C1F780E00E94551907C089910E945519B2
:1025100091E0C73ED907C9F786E0E1EEF1E0DF01BF
:10252000982F1D929A95E9F7E7EEF1E0ABEDB1E057
:1025300001900D928A95E1F7DF91CF91089581E0A6
:10254000089581E00895EF92FF920F931F93CF9328
:10255000DF937C01EB0180E3E8168AE5F80661F081
:1025600028F4C7019A558A9778F1F1C0F1E3EF1684
:10257000FAE5FF06A1F0EBC080E39AE50E94A11204
:10258000882309F4CEC0488159816A817B818C817E
:102590000E940E12882309F4C4C080E012C081E3B7
:1025A0009AE50E94A112882309F4BBC04881598191
:1025B0006A817B818C810E940E12882309F4B1C04C
:1025C00081E00E944112ADC0C7010E94A112882380
:1025D00009F4A7C01091D801112321F0113009F49A
:1025E00044C085C0488159816A817B818C810E9469
:1025F0000E12F701FF27E457FE4F9491292F2295E1
:10260000269526952370882369F0A22FB0E0FD015E
:10261000E951FE4F8081892B8083AF51BE4FEC91F1
:10262000E92B21C086E0E7EEF1E0A1EEB1E00190F8
:102630000D928A95E1F7A22FB0E09D0125523E4F01
:10264000F9018081592F582341E009F040E040937F
:10265000DA01492F40958423F9018083A951BE4FA7
:102660009C91E42FE923EC9342C0488159816A810F
:102670007B818C810E940E12E82F8E2D67E00E94D4
:102680009120292F90E046E050E0421B510921E0C3
:1026900030E001C0220F4A95EAF7AC0149515E4F84
:1026A000EE2351F0FA013081322B3083FC01EF51DF
:1026B000FE4F9081292B1AC066E0E7EEF1E0A1EE13
:1026C000B1E001900D926A95E1F7FC01E552FE4FF1
:1026D0008081682F622391E009F090E09093DA0105
:1026E000209582238083FA01808128232083009112
:1026F000D90121EE31E0412FBE01C7010E949F1296
:10270000882379F0488159816A817B818C810E947C
:102710000E12C82F8091D901CC2329F08F5F8093AE
:10272000D901C0E015C0815018161CF48093D9015E
:1027300002C01092D9018091DA0181110E945F12CA
:102740008091DA01882369F30E945F1201C0C1E021
:102750008C2FDF91CF911F910F91FF90EF900895F3
:10276000CF93DF93EC01FB018281882309F426C11A
:10277000C430FDE5DF0760F4CB3F9CE5D90768F482
:102780009E0122503C452431310508F018C105C096
:10279000C236EDE5DE0709F012C10E94CB0C909322
:1027A0001C0280931B02C031FCE5DF0709F4CAC09C
:1027B00008F041C0C8309CE5D90709F4A4C0F0F482
:1027C000C430FCE5DF0709F48CC068F4C2309CE536
:1027D000D90709F482C0C330DC4509F0E5C0809117
:1027E0001B028260DFC0C630FCE5DF0709F483C04E
:1027F00008F085C080911B028860D4C0CC309CE575
:10280000D90709F490C068F4CA30FCE5DF0709F481
:102810007EC008F084C00E94F60580911B0280688B
:10282000C1C0CE309CE5D90709F481C008F086C04C
:1028300080911B0294C0CD3FFCE5DF0709F47BC00B
:1028400038F5C4319CE5D90709F49AC058F4C2316F
:10285000FCE5DF0709F47AC008F07EC080911B0216
:102860008F7BA0C0CB3F9CE5D907F1F108F03FC0BA
:10287000C531DC4509F098C080911B0282FB2227FC
:1028800020F991E0922790FB82F990FB83F98AC0AE
:10289000C1308DE5D80709F467C050F480911C025F
:1028A000CF3FECE5DE07C1F108F05BC08D7F65C06E
:1028B000C3308DE5D80709F471C008F46DC0C23685
:1028C000DD4509F071C080911B0284FB222720F9AD
:1028D00091E0922790FB84F965C080911B02816092
:1028E00061C080911B0216C080911C0216C08091AD
:1028F0001C02826042C080911B02806153C08091A3
:102900001B0280624FC080911B0280644BC080918B
:102910001B028860846046C0826081602EC0809106
:102920001B028E7F3FC080911B028D7F3BC0809138
:102930001B02877F37C080911C0214C080911B024C
:102940008F7E30C080911B028F7D2CC00E94F605C7
:1029500080911B028F7726C080911B02877F8B7F1F
:1029600021C08D7F8E7F09C080911C02982F909589
:1029700091708E7F892B90FB81F980931C0214C08B
:102980000E94F60580911B0287FB222720F991E027
:10299000922790FB87F906C081E001C080E00E9489
:1029A000620D02C080931B0280911B0290911C0259
:1029B0000E94DC0C0E94F60580E001C081E0DF91FE
:1029C000CF910895CF93DF9386319C4541F5EB017C
:1029D0000E94CF0B982F8A81209102013091030130
:1029E000882379F09A7A81E009F480E08093ED0100
:1029F000911102C069E201C065E3C9010E94CA16D3
:102A00000AC08091ED01811102C069E201C065E355
:102A1000C9010E94D5160E94210C80E001C081E00E
:102A2000DF91CF9108950F931F93CF93DF93C42F1E
:102A3000D22FFC0182818823C9F04093F0010E94CB
:102A400086179093EF018093EE0180E28C0F88301F
:102A500008F057C0C77081E001C0880FCA95EAF737
:102A6000DF91CF911F910F910C947D038091F00124
:102A7000481330C08091EE019091EF010E949E17A3
:102A8000883C910538F510E21D0FCD17B9F080E2B2
:102A90008C0F883040F4C77081E001C0880FCA9560
:102AA000EAF70E948403183028F581E09D2F977083
:102AB00001C0880F9A95EAF70E947D03802F0E943B
:102AC00074031830F0F4D77081E001C0880FDA95F4
:102AD000EAF70AC080E28C0F883098F4C77081E072
:102AE00001C0880FCA95EAF7DF91CF911F910F912E
:102AF0000C948403802FDF91CF911F910F910C9440
:102B00007403DF91CF911F910F9108950F939C0152
:102B1000CB01243F4CE5340731F188F4293DFCE535
:102B20003F07D9F02A3D4CE5340779F1283D3C4573
:102B3000A9F506E221EE41EE68ED7CE52BC0263FCB
:102B4000FCE53F07E1F0A8F0273F3C4539F507E2F7
:102B500025EE46EE67EF7CE51DC007E225EE45EE6B
:102B600069ED7CE517C006E221EE40EE64EF7CE5FE
:102B700011C007E225EE44EE65EF7CE50BC006E2EE
:102B800021EE42EE66EF7CE505C008E221E045EE6D
:102B90006AED7CE50E94131580E008C0FC0182818B
:102BA000882319F01092F00101C081E00F9108957F
:102BB000909345018093440108959093F60180938A
:102BC000F5010895E091F501F091F601309721F0BB
:102BD0000190F081E02D099480E00895E091F501E5
:102BE000F091F601309799F020912B01222359F0B2
:102BF00020911B0227FF07C0DC012C9111962C931A
:102C0000119726E02C930280F381E02D099408951A
:102C10002091F3013091F4012817390771F0909356
:102C2000F4018093F301E091F501F091F601309702
:102C300021F00680F781E02D099408952091F1019B
:102C40003091F2012817390771F09093F2018093C7
:102C5000F101E091F501F091F601309721F0008447
:102C6000F185E02D09940895FC01329680912B01A5
:102C7000882331F080911B0287FF02C09EE101C0D2
:102C800096E080E0915028F021912223D9F38F5FC4
:102C9000F9CF0895662351F120912B012223E9F009
:102CA00020911B0227FF19C0462F46954695469551
:102CB0004E31E0F4677021E030E002C0220F331F94
:102CC0006A95E2F7FC01E40FF11D828190E0282370
:102CD000392381E0232B69F409C0FC013296089660
:102CE0002191621729F0E817F907D1F780E00895DC
:102CF00081E008959C01FC0132969FEF80E04191B4
:102D0000461789F09F3F19F4411101C0982F8F5F3A
:102D10008630A9F79F3F39F0F901E90FF11D97FDC2
:102D2000FA956283089508959C012A5F3F4FFC0144
:102D30004281461301C01282019682179307B9F7A8
:102D40000895262F2695269526952E3168F4FC01A8
:102D5000E20FF11D677021E030E001C0220F6A959B
:102D6000EAF78281282B22830895262F269526951F
:102D700026952E3170F4FC01E20FF11D677021E001
:102D800030E001C0220F6A95EAF72095828128235E
:102D90002283089520912B01222329F020911B02E8
:102DA00027FD0C94A1160C947A1620912B01222356
:102DB00029F020911B0227FD0C94B5160C94941653
:102DC00020912B01FC013296222331F080911B02CD
:102DD00087FF02C08EE101C086E0DF011D928A9567
:102DE000E9F7089508950C94F21683E08093F701B3
:102DF0000C94F316811102C081E001C082E080933F
:102E0000F7010C94F3160C94FA1681E08093F70105
:102E10000C94F3160C9405170895809131028430B8
:102E200031F10E9427021092F80120E488E190E03D
:102E30000FB6F894A895809360000FBE20936000B1
:102E400083B7817F846083BF83B7816083BF7894B9
:102E5000889583B78E7F83BF0FB6F894A89580912D
:102E60006000886180936000109260000FBE08953A
:102E700008950C943817CF930E9439170E946F1150
:102E80000E943817C0E08C2F0E94A210892B29F4D1
:102E9000CF5FC330C1F780E001C081E0CF910895DA
:102EA0000E94F6050C9497021F920F920FB60F9294
:102EB00011248F939F93AF93BF938091F801811159
:102EC00013C08091290290912A02A0912B02B09107
:102ED0002C024196A11DB11D8093290290932A02D4
:102EE000A0932B02B0932C02BF91AF919F918F9131
:102EF0000F900FBE0F901F90189582E084BD93E055
:102F000095BD9AEF97BD80936E0008952FB7F89402
:102F10008091290290912A02A0912B02B0912C025B
:102F20002FBF08952FB7F8946091290270912A025B
:102F300080912B0290912C022FBF08959C014FB7D6
:102F4000F8948091290290912A02A0912B02B091CD
:102F50002C024FBF821B930B089578941F920F92FF
:102F60000FB60F9211248F939F93AF93BF938091CD
:102F7000290290912A02A0912B02B0912C02019675
:102F8000A11DB11D8093290290932A02A0932B02C8
:102F9000B0932C02BF91AF919F918F910F900FBE74
:102FA0000F901F90189587E797E7909301088093FB
:102FB00000089AE088E10FB6F894A8958093600025
:102FC0000FBE90936000FFCF80911902089508957D
:102FD0000895CF93DF9320912B01222339F0209184
:102FE0001B0227FF03C060E222E002C068E021E08C
:102FF0002093E9002FEF3091E800215035FD06C005
:1030000035ED3A95F1F700002111F5CF2091E80058
:1030100025FF1DC0EC0180912B01811105C040E00E
:1030200050E068E070E003C070E040E050E0CE01A6
:103030000E944B1A8091E8008E778093E80080E22E
:10304000FE01A9EFB1E001900D928A95E1F7DF91C1
:10305000CF9108950895089580913002811109C09B
:103060000E94DC1B0E94391C8091E20084608093E6
:10307000E20008951092300208950C940A176091AE
:103080002D0281E0611101C080E00C94F516909151
:10309000310281E0943009F080E060912D020C94BF
:1030A000FA1642E061EC81E00E94551B42E261ECBD
:1030B00082E00E94551B42E061EC83E00E94551BB8
:1030C00042E160E885E00E94551B42E161E884E04E
:1030D0000E94551B9091310281E0943009F080E00C
:1030E00060912D020C94031780913302833009F410
:1030F00061C030F4813071F0823009F49BC0B2C0FD
:103100008A3009F487C08B3009F46CC0893009F02B
:10311000A9C020C080913202813A09F0A3C08091F9
:10312000E800877F8093E800809136029091370213
:10313000892B21F460E289EF91E003C060E080E038
:1031400090E070E00E94961A8091E8008B7780935F
:10315000E80088C080913202813209F083C08091FA
:10316000360290913702029708F07CC08091E80007
:10317000877F8093E8008091E80082FD05C0809100
:1031800031028111F8CF08952091F3008091F2006F
:1031900090E0922B029731F48091F100813011F090
:1031A000863021F48091F100809319028091E8002B
:1031B0008B7754C080913202813A09F053C08091DC
:1031C000360290913702892B09F04CC08091E800BB
:1031D000877F8093E8008091E80080FFFCCF80919A
:1031E0002B0137C0809132028132E1F580913602A5
:1031F00090913702892BB1F58091E800877F809309
:10320000E8000E948A1B8091340280932B010E9467
:10321000F60528C080913202813221F58091E800C4
:10322000877F8093E8000E948A1B809135028093FB
:103230001A0218C080913202813AA1F48091E8000C
:10324000877F8093E8008091E80080FFFCCF809129
:103250001A028093F1008091E8008E778093E80055
:103260000E948A1B84E091E00C94DA1F82E090E0D7
:10327000909317018093160184E091E00C94911FC4
:103280000895CF93DF9384E091E00E942F1FEC011B
:10329000209741F084E091E00E945C1F0E94401959
:1032A0002197F6CFDF91CF910895CF93C091E90098
:1032B0002091EC00922F917020FD90E82091140154
:1032C00020FF2DC0CF70C92B909105019F70909366
:1032D000E9009091EB0090FF1FC09091EE0097FFE6
:1032E0001BC09FEF2091E800915025FD06C025ED01
:1032F0002A95F1F700009111F5CF8093F10084E059
:1033000091E00E94E91E8091E80080FF05C0809155
:10331000E8008E778093E800CF70C093E900CF91EA
:10332000089584B7877F84BF0FB6F894A8958091DD
:103330006000886180936000109260000FBE90E092
:1033400080E80FB6F89480936100909361000FBEFF
:103350000C9405170E94DC1B0E94391CE2EEF0E081
:1033600080818460808378940C94CE1E8FE191E0FC
:103370000C94DD15809131028530A9F480913102E1
:10338000853079F40E940D1780912F028823B1F3C4
:103390000E943B17882391F30E94351A0E94F6057C
:1033A000EDCF0C94501708950E94411984E091E0EC
:1033B0000C94181F0C94DC19292F33272330310566
:1033C000C9F060F42130310581F02230310509F077
:1033D00044C088E790E02CEF31E043C02132310552
:1033E000E1F02232310549F138C082E190E024E772
:1033F00032E037C099278130910549F028F00297D3
:1034000061F5ECECF1E005C0E8EFF1E002C0E6EEBA
:10341000F1E0849190E09F0124C06115710541F0B5
:1034200061307105D1F489E090E027E232E019C003
:1034300089E090E02EE032E014C06115710541F0A2
:103440006130710551F48BE390E026E832E009C069
:1034500080E490E021EC32E004C080E090E020E0E5
:1034600030E0FA0131832083089580E189BD82E153
:1034700089BD09B400FEFDCF8091D8008F7D809377
:10348000D8008091E00082608093E0008091E000AD
:1034900081FDFCCF0895CF92DF92EF92FF920F93C0
:1034A0001F93CF93DF93EC018B017A010E94A91B3C
:1034B000811133C0E114F10439F0F7018081918169
:1034C000081B190BC80FD91FC12CD12C01151105D0
:1034D00019F18091E80085FD16C08091E8008E7793
:1034E0008093E800E114F10449F0F70180819181B3
:1034F000C80ED91ED182C08285E00FC00E94A91BD0
:10350000882321F30AC089918093F10001501109A9
:10351000FFEFCF1ADF0ADACF80E0DF91CF911F9162
:103520000F91FF90EF90DF90CF9008952091380297
:10353000309139022617370748F06115710539F4C3
:103540002091E8002E772093E80001C0B901FC012A
:1035500020E06115710579F1809131028823F1F144
:103560008530F1F18091E80083FD3CC08091E80056
:1035700082FD2EC08091E80080FFEBCF2091F30008
:103580008091F20090E0922B6115710551F0883026
:10359000910538F421912093F10061507109019651
:1035A000F3CF21E0089709F020E08091E8008E77C2
:1035B0008093E800CECF2111CFCF0AC08091310295
:1035C000882361F0853061F08091E80083FD0AC0B6
:1035D0008091E80082FFF2CF80E0089582E00895B4
:1035E00083E0089581E008952091380230913902F6
:1035F0002617370748F06115710539F42091E80066
:103600002E772093E80001C0B901FC0120E061158C
:10361000710591F180913102882309F440C0853011
:1036200009F43FC08091E80083FD3DC08091E8002F
:1036300082FD2FC08091E80080FFE9CF2091F30048
:103640008091F20090E0922B6115710559F088305D
:10365000910540F424912093F10031966150710955
:103660000196F2CF21E0089709F020E08091E80070
:103670008E778093E800CBCF2111CCCF0AC0809108
:103680003102882361F0853061F08091E80083FD8C
:103690000AC08091E80082FFF2CF80E0089582E0C6
:1036A000089583E0089581E00895982F973068F594
:1036B0009093E900981739F07091EC002091ED009B
:1036C0005091F00003C0242F762F50E021FD02C05E
:1036D0009F5FECCF3091EB003E7F3093EB00309159
:1036E000ED003D7F3093ED003091EB003160309381
:1036F000EB007093EC002093ED005093F0002091CC
:10370000EE0027FDE5CF80E008958F708093E900FB
:1037100081E008958091320287FF11C08091E80016
:1037200082FD05C0809131028111F8CF11C08091D6
:10373000E8008B770BC080913102882349F080919B
:10374000E80080FFF8CF8091E8008E778093E80052
:1037500008952091E4003091E50095E64091EC0059
:10376000842F817040FF23C08091E80080FD1DC040
:1037700080913102882399F0853099F08091EB0097
:1037800085FD11C04091E4005091E50024173507F4
:1037900029F3915011F09A01E1CF84E0089582E07D
:1037A000089583E0089581E0089580E008954091B0
:1037B000E80042FFDDCF08950E944A1C0E94521C7F
:1037C000E0EEF0E0808181608083E8EDF0E08081D0
:1037D0008F77808319BCA7EDB0E08C918E7F8C939E
:1037E00080818F7E80831092300208950F931F9303
:1037F000CF93DF930E944A1C0E94521CC8EDD0E078
:1038000088818F77888388818068888388818F7D8D
:10381000888319BC1092310210922D0210922F024F
:1038200010922E0200EE10E0F80180818B7F8083E1
:1038300088818160888342E060E080E00E94551BBF
:10384000E1EEF0E080818E7F8083E2EEF0E0808127
:1038500081608083808188608083F80180818E7F91
:103860008083888180618883DF91CF911F910F9140
:103870000895E8EDF0E080818F7E8083E7EDF0E051
:1038800080818160808384E082BF81E08093300208
:103890000C94F61BE8EDF0E080818E7F808310921F
:1038A000E20008951092DA001092E10008951F924C
:1038B0000F920FB60F9211242F933F934F935F9364
:1038C0006F937F938F939F93AF93BF93EF93FF93E8
:1038D0008091E10082FF0BC08091E20082FF07C06F
:1038E0008091E1008B7F8093E1000E94CD1E80914A
:1038F000DA0080FF1FC08091D80080FF1BC080913C
:10390000DA008E7F8093DA008091D90080FF0DC0AD
:1039100080E189BD82E189BD09B400FEFDCF81E06F
:10392000809331020E942C1805C019BC10923102FC
:103930000E943A188091E10080FF19C08091E20056
:1039400080FF15C08091E2008E7F8093E20080911D
:10395000E20080618093E2008091D80080628093D1
:10396000D80019BC85E0809331020E943F188091F5
:10397000E10084FF30C08091E20084FF2CC080E130
:1039800089BD82E189BD09B400FEFDCF8091D800D8
:103990008F7D8093D8008091E1008F7E8093E1003D
:1039A0008091E2008F7E8093E2008091E20081604E
:1039B0008093E20080912D02882311F084E007C0FB
:1039C0008091E30087FD02C081E001C083E0809325
:1039D00031020E9447188091E10083FF29C0809145
:1039E000E20083FF25C08091E100877F8093E100A2
:1039F00082E08093310210922D028091E1008E7F4F
:103A00008093E1008091E2008E7F8093E2008091BC
:103A1000E20080618093E20042E060E080E00E948A
:103A2000551B8091F00088608093F0000E943D1843
:103A3000FF91EF91BF91AF919F918F917F916F9186
:103A40005F914F913F912F910F900FBE0F901F905C
:103A500018951F920F920FB60F9211242F933F9338
:103A60004F935F936F937F938F939F93AF93BF9386
:103A7000CF93DF93EF93FF93C091E900CF708091D4
:103A8000EC00D82FD17080FDD0E81092E900809131
:103A9000F000877F8093F00078940E946D1D109253
:103AA000E9008091F00088608093F000CD2BCF700A
:103AB000C093E900FF91EF91DF91CF91BF91AF915A
:103AC0009F918F917F916F915F914F913F912F9136
:103AD0000F900FBE0F901F9018951F93CF93DF93F9
:103AE000CDB7DEB7AA970FB6F894DEBF0FBECDBF35
:103AF000E2E3F2E08091F100819322E0EA33F20701
:103B0000C9F70E9474188091E80083FF2EC180914C
:103B1000320290913302492F50E04A30510508F0AB
:103B200024C1FA01EC58FF4F0C949D20803821F0FD
:103B3000823809F01AC108C080912E0290912F029C
:103B4000992389F082600FC0809136028F70873090
:103B500008F00BC18093E9008091EB0085FB88277A
:103B600080F91092E9009091E800977F9093E80027
:103B70008093F1001092F100D1C0282F2D7F09F021
:103B8000F4C0882319F0823061F0EFC080913402D4
:103B9000813009F0EAC0933009F080E080932F0271
:103BA0002EC08091340281112AC0809136028F701C
:103BB0002FEF280F263008F0D8C08093E90020911D
:103BC000EB0020FF1CC0933021F48091EB00806259
:103BD00014C09091EB0090619093EB0021E030E0F5
:103BE000A90102C0440F551F8A95E2F74093EA00ED
:103BF0001092EA008091EB0088608093EB001092B5
:103C0000E9008091E800877F8093E8000E948A1B8A
:103C1000ACC08111AAC0109134021F778091E300DB
:103C20008078812B8093E3008091E800877F8093E8
:103C3000E8000E948A1B8091E80080FFFCCF809101
:103C4000E30080688093E300111102C082E001C0AC
:103C500083E08093310289C08058823008F085C0AB
:103C600080913402909135028C3D53E0950779F5AF
:103C700083E08A838AE289834FB7F894DE01139642
:103C800020E03EE051E2E32FF0E050935700E49152
:103C900020FF03C0E295EF703F5FEF708E2F90E042
:103CA000EA3010F0C79601C0C0968D939D932F5FA8
:103CB000243149F74FBF8091E800877F8093E80067
:103CC0006AE270E0CE0101960E94961A16C06091D9
:103CD000360270913702AE014F5F5F4F0E94DA19D2
:103CE000BC01892B09F441C09091E800977F909323
:103CF000E80089819A810E94F41A8091E8008B770C
:103D00008093E80032C0803881F58091E800877F99
:103D10008093E80080912D028093F1008091E8006B
:103D20008E7772CF811121C080913402909135023B
:103D300099270297D4F48091E800877F8093E80068
:103D40008091340280932D020E948A1B80912D0263
:103D5000811106C08091E30087FD02C081E001C0AF
:103D600084E0809331020E9451188091E80083FF23
:103D70000AC08091E800877F8093E8008091EB0083
:103D800080628093EB00AA960FB6F894DEBF0FBE58
:103D9000CDBFDF91CF911F9108950895CF9380916A
:103DA00031028823A1F0C091E900CF709091EC001E
:103DB000892F817090FD80E8C82B1092E9008091D6
:103DC000E80083FD0E946D1DCF70C093E900CF9184
:103DD000089520913102243049F5FC014489558928
:103DE00066897789452B462B472B01F181818F709E
:103DF0008093E9002091F3008091F20090E0922BF3
:103E0000892B91F09091E8008091E8008E77809363
:103E1000E80095FD09C00E94A91B811108C080918E
:103E2000E8008E778093E80080E0089582E00895AE
:103E300020913102243091F4FC014489558966892E
:103E40007789452B462B472B49F021812F702093F2
:103E5000E9002091E80020FD0C94E91E08952091CE
:103E60003102243019F080E090E00895FC0144898B
:103E7000558966897789452B462B472BA1F3868187
:103E80008F708093E9008091E80082FFECCF209151
:103E9000F3008091F20090E0922B009731F4209192
:103EA000E8002B772093E80008952091F30080919B
:103EB000F20090E0922B089520913102243019F005
:103EC0008FEF9FEF0895FC014489558966897789B2
:103ED000452B462B472BA1F386818F708093E900F9
:103EE0008091E80082FFECCF2091F3008091F200F6
:103EF00090E0922B892B21F02091F10030E002C05C
:103F00002FEF3FEF4091F3008091F20090E0942B6F
:103F1000892B29F48091E8008B778093E800C90110
:103F200008950F931F93CF93DF93CDB7DEB72897F4
:103F30000FB6F894DEBF0FBECDBF20913102243002
:103F400061F5FC014489558966897789452B462BA3
:103F5000472B19F18C0183858F708093E90088E0ED
:103F6000ECE2F1E0DE01119601900D928A95E1F705
:103F700040E050E068E070E0CE0101960E944B1AEC
:103F800040E050E062E070E0C80142960E944B1AA7
:103F90008091E8008E778093E80028960FB6F89419
:103FA000DEBF0FBECDBFDF91CF911F910F9108955E
:103FB00008950895CF93DF93EC018091E80083FF8B
:103FC000ADC0888190E020913602309137022817E9
:103FD000390709F0A3C080913302813261F020F4E7
:103FE000803209F43FC09AC0823209F46FC0833234
:103FF00009F482C093C080913202813A09F08EC0E8
:104000008091E800877F8093E8008091E80080FF3E
:10401000FCCF8C899D89AE89BF898093F100492F9F
:104020005A2F6B2F77274093F100AD016627772732
:104030004093F1008B2F9927AA27BB278093F1008B
:10404000888D8093F100898D8093F1008A8D809313
:10405000F1008091E8008E778093E800DF91CF91A6
:104060000C948A1B80913202813209F057C08091F2
:10407000E800877F8093E8008091E80082FD05C01A
:10408000809131028111F8CF49C03091F100209127
:10409000F1009091F1008091F1003C8B2D8B9E8B73
:1040A0008F8B8091F100888F8091F100898F8091B2
:1040B000F1008A8F8091E8008B778093E8000E945E
:1040C0008A1BCE01DF91CF910C94D81F80913202D0
:1040D000813221F58091E800877F8093E8000E947B
:1040E0008A1B8091340290913502998B888BCE0186
:1040F000DF91CF910C94D81F80913202813271F4FC
:104100008091E800877F8093E8000E948A1B60917D
:104110003402CE01DF91CF910C94D91FDF91CF9162
:104120000895991B79E004C0991F961708F0961B13
:10413000881F7A95C9F780950895EE0FFF1F0590A7
:10414000F491E02D0994FB01DC0104C08D910190F4
:10415000801921F441505040C8F7881B990B0895ED
:10416000F999FECF92BD81BDF89A992780B508953F
:10417000A8E1B0E042E050E00C94E420262FF99949
:10418000FECF92BD81BDF89A019700B4021639F0B6
:104190001FBA20BD0FB6F894FA9AF99A0FBE089587
:1041A0000396272F0E94BF200E94BE20252F0E9429
:1041B000BF20242F0C94BF200196272F0E94BF20E0
:1041C0000C94BE20DC01CB01FC01F999FECF06C0A6
:1041D000F2BDE1BDF89A319600B40D9241505040C5
:0841E000B8F70895F894FFCF31
:1041E800C800A2010284100000010510000001832C
:1041F800080000010000000000000000000000E4CA
:1042080017E9172A182B18E717E81701A12000004B
:1042180000000200F4F5F6F73133C69766949091E2
:0442280034323500F7
:00000001FF
